{
  "contractName": "JaroCoinToken",
  "abi": [
    {
      "constant": true,
      "inputs": [],
      "name": "name",
      "outputs": [
        {
          "name": "",
          "type": "string"
        }
      ],
      "payable": false,
      "stateMutability": "view",
      "type": "function"
    },
    {
      "constant": true,
      "inputs": [],
      "name": "totalSupply",
      "outputs": [
        {
          "name": "",
          "type": "uint256"
        }
      ],
      "payable": false,
      "stateMutability": "view",
      "type": "function"
    },
    {
      "constant": true,
      "inputs": [],
      "name": "decimals",
      "outputs": [
        {
          "name": "",
          "type": "uint8"
        }
      ],
      "payable": false,
      "stateMutability": "view",
      "type": "function"
    },
    {
      "constant": true,
      "inputs": [],
      "name": "granularity",
      "outputs": [
        {
          "name": "",
          "type": "uint256"
        }
      ],
      "payable": false,
      "stateMutability": "view",
      "type": "function"
    },
    {
      "constant": true,
      "inputs": [
        {
          "name": "",
          "type": "address"
        }
      ],
      "name": "balanceOf",
      "outputs": [
        {
          "name": "",
          "type": "uint256"
        }
      ],
      "payable": false,
      "stateMutability": "view",
      "type": "function"
    },
    {
      "constant": true,
      "inputs": [],
      "name": "owner",
      "outputs": [
        {
          "name": "",
          "type": "address"
        }
      ],
      "payable": false,
      "stateMutability": "view",
      "type": "function"
    },
    {
      "constant": true,
      "inputs": [],
      "name": "symbol",
      "outputs": [
        {
          "name": "",
          "type": "string"
        }
      ],
      "payable": false,
      "stateMutability": "view",
      "type": "function"
    },
    {
      "constant": true,
      "inputs": [],
      "name": "maxSupply",
      "outputs": [
        {
          "name": "",
          "type": "uint256"
        }
      ],
      "payable": false,
      "stateMutability": "view",
      "type": "function"
    },
    {
      "constant": true,
      "inputs": [
        {
          "name": "",
          "type": "address"
        },
        {
          "name": "",
          "type": "address"
        }
      ],
      "name": "isOperatorFor",
      "outputs": [
        {
          "name": "",
          "type": "bool"
        }
      ],
      "payable": false,
      "stateMutability": "view",
      "type": "function"
    },
    {
      "constant": false,
      "inputs": [
        {
          "name": "newOwner",
          "type": "address"
        }
      ],
      "name": "transferOwnership",
      "outputs": [],
      "payable": false,
      "stateMutability": "nonpayable",
      "type": "function"
    },
    {
      "anonymous": false,
      "inputs": [
        {
          "indexed": true,
          "name": "from",
          "type": "address"
        },
        {
          "indexed": true,
          "name": "to",
          "type": "address"
        },
        {
          "indexed": false,
          "name": "value",
          "type": "uint256"
        }
      ],
      "name": "Transfer",
      "type": "event"
    },
    {
      "anonymous": false,
      "inputs": [
        {
          "indexed": true,
          "name": "operator",
          "type": "address"
        },
        {
          "indexed": true,
          "name": "from",
          "type": "address"
        },
        {
          "indexed": true,
          "name": "to",
          "type": "address"
        },
        {
          "indexed": false,
          "name": "amount",
          "type": "uint256"
        },
        {
          "indexed": false,
          "name": "userData",
          "type": "bytes"
        },
        {
          "indexed": false,
          "name": "operatorData",
          "type": "bytes"
        }
      ],
      "name": "Sent",
      "type": "event"
    },
    {
      "anonymous": false,
      "inputs": [
        {
          "indexed": true,
          "name": "operator",
          "type": "address"
        },
        {
          "indexed": true,
          "name": "to",
          "type": "address"
        },
        {
          "indexed": false,
          "name": "amount",
          "type": "uint256"
        },
        {
          "indexed": false,
          "name": "operatorData",
          "type": "bytes"
        }
      ],
      "name": "Minted",
      "type": "event"
    },
    {
      "anonymous": false,
      "inputs": [
        {
          "indexed": true,
          "name": "operator",
          "type": "address"
        },
        {
          "indexed": true,
          "name": "from",
          "type": "address"
        },
        {
          "indexed": false,
          "name": "amount",
          "type": "uint256"
        },
        {
          "indexed": false,
          "name": "userData",
          "type": "bytes"
        },
        {
          "indexed": false,
          "name": "operatorData",
          "type": "bytes"
        }
      ],
      "name": "Burned",
      "type": "event"
    },
    {
      "anonymous": false,
      "inputs": [
        {
          "indexed": true,
          "name": "operator",
          "type": "address"
        },
        {
          "indexed": true,
          "name": "tokenHolder",
          "type": "address"
        }
      ],
      "name": "AuthorizedOperator",
      "type": "event"
    },
    {
      "anonymous": false,
      "inputs": [
        {
          "indexed": true,
          "name": "operator",
          "type": "address"
        },
        {
          "indexed": true,
          "name": "tokenHolder",
          "type": "address"
        }
      ],
      "name": "RevokedOperator",
      "type": "event"
    },
    {
      "anonymous": false,
      "inputs": [
        {
          "indexed": true,
          "name": "owner",
          "type": "address"
        },
        {
          "indexed": true,
          "name": "spender",
          "type": "address"
        },
        {
          "indexed": false,
          "name": "value",
          "type": "uint256"
        }
      ],
      "name": "Approval",
      "type": "event"
    },
    {
      "anonymous": false,
      "inputs": [
        {
          "indexed": true,
          "name": "previousOwner",
          "type": "address"
        },
        {
          "indexed": true,
          "name": "newOwner",
          "type": "address"
        }
      ],
      "name": "OwnershipTransferred",
      "type": "event"
    },
    {
      "constant": false,
      "inputs": [
        {
          "name": "_to",
          "type": "address"
        },
        {
          "name": "_amount",
          "type": "uint256"
        },
        {
          "name": "_userData",
          "type": "bytes"
        }
      ],
      "name": "send",
      "outputs": [],
      "payable": false,
      "stateMutability": "nonpayable",
      "type": "function"
    },
    {
      "constant": false,
      "inputs": [
        {
          "name": "_to",
          "type": "address"
        },
        {
          "name": "_amount",
          "type": "uint256"
        },
        {
          "name": "_userData",
          "type": "bytes"
        },
        {
          "name": "_nonce",
          "type": "uint256"
        },
        {
          "name": "v",
          "type": "uint8"
        },
        {
          "name": "r",
          "type": "bytes32"
        },
        {
          "name": "s",
          "type": "bytes32"
        }
      ],
      "name": "sendByCheque",
      "outputs": [],
      "payable": false,
      "stateMutability": "nonpayable",
      "type": "function"
    },
    {
      "constant": false,
      "inputs": [
        {
          "name": "_operator",
          "type": "address"
        }
      ],
      "name": "authorizeOperator",
      "outputs": [],
      "payable": false,
      "stateMutability": "nonpayable",
      "type": "function"
    },
    {
      "constant": false,
      "inputs": [
        {
          "name": "_operator",
          "type": "address"
        }
      ],
      "name": "revokeOperator",
      "outputs": [],
      "payable": false,
      "stateMutability": "nonpayable",
      "type": "function"
    },
    {
      "constant": false,
      "inputs": [
        {
          "name": "_from",
          "type": "address"
        },
        {
          "name": "_to",
          "type": "address"
        },
        {
          "name": "_amount",
          "type": "uint256"
        },
        {
          "name": "_userData",
          "type": "bytes"
        },
        {
          "name": "_operatorData",
          "type": "bytes"
        }
      ],
      "name": "operatorSend",
      "outputs": [],
      "payable": false,
      "stateMutability": "nonpayable",
      "type": "function"
    },
    {
      "constant": false,
      "inputs": [
        {
          "name": "_to",
          "type": "address"
        },
        {
          "name": "_value",
          "type": "uint256"
        }
      ],
      "name": "transfer",
      "outputs": [
        {
          "name": "",
          "type": "bool"
        }
      ],
      "payable": false,
      "stateMutability": "nonpayable",
      "type": "function"
    },
    {
      "constant": false,
      "inputs": [
        {
          "name": "_from",
          "type": "address"
        },
        {
          "name": "_to",
          "type": "address"
        },
        {
          "name": "_value",
          "type": "uint256"
        }
      ],
      "name": "transferFrom",
      "outputs": [
        {
          "name": "",
          "type": "bool"
        }
      ],
      "payable": false,
      "stateMutability": "nonpayable",
      "type": "function"
    },
    {
      "constant": true,
      "inputs": [
        {
          "name": "_owner",
          "type": "address"
        },
        {
          "name": "_spender",
          "type": "address"
        }
      ],
      "name": "allowance",
      "outputs": [
        {
          "name": "_amount",
          "type": "uint256"
        }
      ],
      "payable": false,
      "stateMutability": "view",
      "type": "function"
    },
    {
      "constant": false,
      "inputs": [
        {
          "name": "_spender",
          "type": "address"
        },
        {
          "name": "_value",
          "type": "uint256"
        }
      ],
      "name": "approve",
      "outputs": [
        {
          "name": "",
          "type": "bool"
        }
      ],
      "payable": false,
      "stateMutability": "nonpayable",
      "type": "function"
    },
    {
      "constant": false,
      "inputs": [
        {
          "name": "_to",
          "type": "address"
        },
        {
          "name": "_amount",
          "type": "uint256"
        },
        {
          "name": "_operatorData",
          "type": "bytes"
        }
      ],
      "name": "mint",
      "outputs": [],
      "payable": false,
      "stateMutability": "nonpayable",
      "type": "function"
    },
    {
      "constant": false,
      "inputs": [
        {
          "name": "_amount",
          "type": "uint256"
        },
        {
          "name": "_userData",
          "type": "bytes"
        }
      ],
      "name": "burn",
      "outputs": [],
      "payable": false,
      "stateMutability": "nonpayable",
      "type": "function"
    }
  ],
  "bytecode": "0x606060405260018054600160a060020a03191673991a1bcb077599290d7305493c9a630c20f8b79817905560006005556100453364010000000061151561004a82021704565b61006c565b60008054600160a060020a031916600160a060020a0392909216919091179055565b6118a48061007b6000396000f3006060604052600436106101035763ffffffff60e060020a60003504166306fdde038114610108578063095ea7b31461019257806318160ddd146101c857806323b872dd146101ed578063313ce56714610215578063398427e61461023e578063556f0dc7146102bb57806362ad1b83146102ce57806370a082311461037c5780638da5cb5b1461039b57806394d008ef146103ca578063959b8c3f1461042f57806395d89b411461044e5780639bd9bbc614610461578063a9059cbb146104c6578063d5abeb01146104e8578063d95b6371146104fb578063dd62ed3e14610520578063f2fde38b14610545578063fad8b32a14610564578063fe9d930314610583575b600080fd5b341561011357600080fd5b61011b6105d9565b60405160208082528190810183818151815260200191508051906020019080838360005b8381101561015757808201518382015260200161013f565b50505050905090810190601f1680156101845780820380516001836020036101000a031916815260200191505b509250505060405180910390f35b341561019d57600080fd5b6101b4600160a060020a0360043516602435610610565b604051901515815260200160405180910390f35b34156101d357600080fd5b6101db610752565b60405190815260200160405180910390f35b34156101f857600080fd5b6101b4600160a060020a0360043581169060243516604435610758565b341561022057600080fd5b6102286107fb565b60405160ff909116815260200160405180910390f35b341561024957600080fd5b6102b960048035600160a060020a03169060248035919060649060443590810190830135806020601f820181900481020160405190810160405281815292919060208401838380828437509496505084359460ff6020820135169450604081013593506060013591506108009050565b005b34156102c657600080fd5b6101db610a58565b34156102d957600080fd5b6102b9600160a060020a036004803582169160248035909116916044359160849060643590810190830135806020601f8201819004810201604051908101604052818152929190602084018383808284378201915050505050509190803590602001908201803590602001908080601f016020809104026020016040519081016040528181529291906020840183838082843750949650610a6195505050505050565b341561038757600080fd5b6101db600160a060020a0360043516610aac565b34156103a657600080fd5b6103ae610abe565b604051600160a060020a03909116815260200160405180910390f35b34156103d557600080fd5b6102b960048035600160a060020a03169060248035919060649060443590810190830135806020601f82018190048102016040519081016040528181529291906020840183838082843750949650610acd95505050505050565b341561043a57600080fd5b6102b9600160a060020a0360043516610c89565b341561045957600080fd5b61011b610d0e565b341561046c57600080fd5b6102b960048035600160a060020a03169060248035919060649060443590810190830135806020601f82018190048102016040519081016040528181529291906020840183838082843750949650610d4595505050505050565b34156104d157600080fd5b6101b4600160a060020a0360043516602435610d68565b34156104f357600080fd5b6101db610da0565b341561050657600080fd5b6101b4600160a060020a0360043581169060243516610daf565b341561052b57600080fd5b6101db600160a060020a0360043581169060243516610dcf565b341561055057600080fd5b6102b9600160a060020a0360043516610e27565b341561056f57600080fd5b6102b9600160a060020a0360043516610e9f565b341561058e57600080fd5b6102b9600480359060446024803590810190830135806020601f82018190048102016040519081016040528181529291906020840183838082843750949650610f2195505050505050565b60408051908101604052600881527f4a61726f436f696e000000000000000000000000000000000000000000000000602082015281565b600033600160a060020a031683600160a060020a03161415151561063357600080fd5b60008211156106a257600160a060020a038084166000818152600360209081526040808320339095168084529490915290819020805460ff191660011790557ff4caeb2d6ca8932a215a353d0703c326ec2d81fc68170f320eb2ab49e9df61f9905160405180910390a3610701565b600160a060020a038084166000818152600360209081526040808320339095168084529490915290819020805460ff191690557f50546e66e5f44d728365dc3908c63bc5cfeeab470722c1677e3073a6ac294aa1905160405180910390a35b82600160a060020a031633600160a060020a03167f8c5be1e5ebec7d5bd14f71427d1e84f3dd0314c0f7b2291e5b200ac8c7c3b9258460405190815260200160405180910390a35060015b92915050565b60055481565b600160a060020a03338116600090815260036020908152604080832093871683529290529081205460ff16151561078e57600080fd5b6107bc84848460206040519081016040528060008152503360206040519081016040526000815260016110bd565b82600160a060020a031684600160a060020a03166000805160206118598339815191528460405190815260200160405180910390a35060019392505050565b601281565b610808611846565b60008030600160a060020a03168a600160a060020a03161415151561082c57600080fd5b6040805190810160405280601c81526020017f19457468657265756d205369676e6564204d6573736167653a0a3332000000008152509250828a8a8a8a6040516c01000000000000000000000000600160a060020a038616028152601481018490526034810183805190602001908083835b602083106108bd5780518252601f19909201916020918201910161089e565b6001836020036101000a0380198251168184511617909252505050919091019283525050602001925060409150505180910390206040518083805190602001908083835b602083106109205780518252601f199092019160209182019101610901565b6001836020036101000a03801982511681845116179092525050509190910192835250506020019050604051809103902091506001828787876040516000815260200160405260405193845260ff9092166020808501919091526040808501929092526060840192909252608090920191516020810390808403906000865af115156109ab57600080fd5b5050602060405103519050600160a060020a03811615156109cb57600080fd5b600160a060020a03811660009081526004602090815260408083208a845290915290205460ff16156109fc57600080fd5b600160a060020a03811660009081526004602090815260408083208a8452825291829020805460ff19166001179055610a4c9183918d918d918d91859190519081016040526000815260016110bd565b50505050505050505050565b6402540be40081565b600160a060020a0333811660009081526003602090815260408083209389168352929052205460ff161515610a9557600080fd5b610aa585858585338660016110bd565b5050505050565b60026020526000908152604090205481565b600054600160a060020a031681565b60005433600160a060020a03908116911614610ae857600080fd5b6005546a115eec47f6cf7e3500000090610b08908463ffffffff6112fc16565b1115610b1357600080fd5b610b1c82611316565b600554610b2f908363ffffffff6112fc16565b600555600160a060020a038316600090815260026020526040902054610b5b908363ffffffff6112fc16565b6002600085600160a060020a0316600160a060020a0316815260200190815260200160002081905550610ba33360008585602060405190810160405260008152866001611346565b82600160a060020a031633600160a060020a03167fbcd28e05e57d4bcd5bfcc92a4661d412893e6112c44a2e25d96cfdfc30d5f22e848460405182815260406020820181815290820183818151815260200191508051906020019080838360005b83811015610c1c578082015183820152602001610c04565b50505050905090810190601f168015610c495780820380516001836020036101000a031916815260200191505b50935050505060405180910390a382600160a060020a031660006000805160206118598339815191528460405190815260200160405180910390a3505050565b33600160a060020a031681600160a060020a031614151515610caa57600080fd5b600160a060020a038082166000818152600360209081526040808320339095168084529490915290819020805460ff191660011790557ff4caeb2d6ca8932a215a353d0703c326ec2d81fc68170f320eb2ab49e9df61f9905160405180910390a350565b60408051908101604052600481527f4a41524f00000000000000000000000000000000000000000000000000000000602082015281565b610d63338484843360206040519081016040526000815260016110bd565b505050565b6000610d97338484602060405190810160405280600081525033602060405190810160405260008082526110bd565b50600192915050565b6a115eec47f6cf7e3500000081565b600360209081526000928352604080842090915290825290205460ff1681565b600160a060020a03808216600090815260036020908152604080832093861683529290529081205460ff1615610e1e5750600160a060020a03821660009081526002602052604090205461074c565b50600092915050565b60005433600160a060020a03908116911614610e4257600080fd5b600160a060020a0381161515610e5757600080fd5b600054600160a060020a0380831691167f8be0079c531659141344cd1fd0a4f28419497f9722a3daafe3b4186f6b6457e060405160405180910390a3610e9c81611515565b50565b33600160a060020a031681600160a060020a031614151515610ec057600080fd5b600160a060020a038082166000818152600360209081526040808320339095168084529490915290819020805460ff191690557f50546e66e5f44d728365dc3908c63bc5cfeeab470722c1677e3073a6ac294aa1905160405180910390a350565b60008211610f2e57600080fd5b600160a060020a03331660009081526002602052604090205482901015610f5457600080fd5b610f5d82611316565b610f7a333360008585602060405190810160405260008152611544565b600554610f8d908363ffffffff6116f116565b600555600160a060020a033316600090815260026020526040902054610fb9908363ffffffff6116f116565b600160a060020a03331660008181526002602052604090819020929092559081907fa78a9be3a7b862d26933ad85fb11d80ef66b8f972d7cbba06621d583943a4098908590859051808381526020018060200180602001838103835284818151815260200191508051906020019080838360005b8381101561104557808201518382015260200161102d565b50505050905090810190601f1680156110725780820380516001836020036101000a031916815260200191505b50928303905250600081526040908101925090505180910390a3600033600160a060020a03166000805160206118598339815191528460405190815260200160405180910390a35050565b6110c685611316565b6110d4838888888887611544565b600160a060020a03861615156110e957600080fd5b600160a060020a0387166000908152600260205260409020548590101561110f57600080fd5b600160a060020a038716600090815260026020526040902054611138908663ffffffff6116f116565b600160a060020a03808916600090815260026020526040808220939093559088168152205461116d908663ffffffff6112fc16565b600160a060020a03871660009081526002602052604090205561119583888888888787611346565b85600160a060020a031687600160a060020a031684600160a060020a03167f06b541ddaa720db2b10a4d0cdac39b8d360425fc073085fac19bc82614677987888887604051808481526020018060200180602001838103835285818151815260200191508051906020019080838360005b8381101561121e578082015183820152602001611206565b50505050905090810190601f16801561124b5780820380516001836020036101000a031916815260200191505b50838103825284818151815260200191508051906020019080838360005b83811015611281578082015183820152602001611269565b50505050905090810190601f1680156112ae5780820380516001836020036101000a031916815260200191505b509550505050505060405180910390a485600160a060020a031687600160a060020a03166000805160206118598339815191528760405190815260200160405180910390a350505050505050565b60008282018381101561130b57fe5b8091505b5092915050565b8061133c6402540be400611330838263ffffffff61170316565b9063ffffffff61171a16565b14610e9c57600080fd5b60006113858660408051908101604052601581527f455243373737546f6b656e73526563697069656e7400000000000000000000006020820152611745565b9050600160a060020a038116156114f15780600160a060020a03166223de2989898989898960405160e060020a63ffffffff8916028152600160a060020a0380881660048301908152878216602484015290861660448301526064820185905260c060848301908152909160a481019060c40185818151815260200191508051906020019080838360005b83811015611428578082015183820152602001611410565b50505050905090810190601f1680156114555780820380516001836020036101000a031916815260200191505b50838103825284818151815260200191508051906020019080838360005b8381101561148b578082015183820152602001611473565b50505050905090810190601f1680156114b85780820380516001836020036101000a031916815260200191505b5098505050505050505050600060405180830381600087803b15156114dc57600080fd5b5af115156114e957600080fd5b50505061150b565b811561150b576115008661181c565b151561150b57600080fd5b5050505050505050565b6000805473ffffffffffffffffffffffffffffffffffffffff1916600160a060020a0392909216919091179055565b60006115838660408051908101604052601281527f455243373737546f6b656e7353656e64657200000000000000000000000000006020820152611745565b9050600160a060020a038116156116e85780600160a060020a03166375ab978288888888888860405160e060020a63ffffffff8916028152600160a060020a0380881660048301908152878216602484015290861660448301526064820185905260c060848301908152909160a481019060c40185818151815260200191508051906020019080838360005b8381101561162757808201518382015260200161160f565b50505050905090810190601f1680156116545780820380516001836020036101000a031916815260200191505b50838103825284818151815260200191508051906020019080838360005b8381101561168a578082015183820152602001611672565b50505050905090810190601f1680156116b75780820380516001836020036101000a031916815260200191505b5098505050505050505050600060405180830381600087803b15156116db57600080fd5b5af11515610a4c57600080fd5b50505050505050565b6000828211156116fd57fe5b50900390565b600080828481151561171157fe5b04949350505050565b60008083151561172d576000915061130f565b5082820282848281151561173d57fe5b041461130b57fe5b600080826040518082805190602001908083835b602083106117785780518252601f199092019160209182019101611759565b6001836020036101000a0380198251168184511617909252505050919091019250604091505051908190039020600154909150600160a060020a031663aabbb8ca858360405160e060020a63ffffffff8516028152600160a060020a0390921660048301526024820152604401602060405180830381600087803b15156117fe57600080fd5b5af1151561180b57600080fd5b505050604051805195945050505050565b600080600160a060020a03831615156118385760009150611840565b5050803b8015905b50919050565b602060405190810160405260008152905600ddf252ad1be2c89b69c2b068fc378daa952ba7f163c4a11628f55a4df523b3efa165627a7a72305820ae78c4ce2a89c998dec3e97283a7286326518fd5bbee166f49e56d0a08aa115d0029",
  "source": "pragma solidity 0.4.21;\n\nimport \"zeppelin-solidity/contracts/math/SafeMath.sol\";\nimport \"eip820/contracts/ERC820Implementer.sol\";\nimport \"./Ownable.sol\";\n\ninterface ERC777TokensSender {\n    function tokensToSend(address operator, address from, address to, uint amount, bytes userData,bytes operatorData) external;\n}\n\n\ninterface ERC777TokensRecipient {\n    function tokensReceived(address operator, address from, address to, uint amount, bytes userData, bytes operatorData) external;\n}\n\ncontract JaroCoinToken is Ownable, ERC820Implementer {\n    using SafeMath for uint256;\n\n    string public constant name = \"JaroCoin\";\n    string public constant symbol = \"JARO\";\n    uint8 public constant decimals = 18;\n    uint256 public constant granularity = 1e10;   // Token has 8 digits after comma\n\n    mapping (address => uint256) public balanceOf;\n    mapping (address => mapping (address => bool)) public isOperatorFor;\n    mapping (address => mapping (uint256 => bool)) private usedNonces;\n\n    event Transfer(address indexed from, address indexed to, uint256 value);\n    event Sent(address indexed operator, address indexed from, address indexed to, uint256 amount, bytes userData, bytes operatorData);\n    event Minted(address indexed operator, address indexed to, uint256 amount, bytes operatorData);\n    event Burned(address indexed operator, address indexed from, uint256 amount, bytes userData, bytes operatorData);\n    event AuthorizedOperator(address indexed operator, address indexed tokenHolder);\n    event RevokedOperator(address indexed operator, address indexed tokenHolder);\n    event Approval(address indexed owner, address indexed spender, uint256 value);\n\n    uint256 public totalSupply = 0;\n    uint256 public constant maxSupply = 21000000e18;\n\n\n    // ------- ERC777/ERC965 Implementation ----------\n\n    /**\n    * @notice Send `_amount` of tokens to address `_to` passing `_userData` to the recipient\n    * @param _to The address of the recipient\n    * @param _amount The number of tokens to be sent\n    * @param _userData Data generated by the user to be sent to the recipient\n    */\n    function send(address _to, uint256 _amount, bytes _userData) public {\n        doSend(msg.sender, _to, _amount, _userData, msg.sender, \"\", true);\n    }\n\n    /**\n    * @dev transfer token for a specified address via cheque\n    * @param _to The address to transfer to\n    * @param _amount The amount to be transferred\n    * @param _userData The data to be executed\n    * @param _nonce Unique nonce to avoid double spendings\n    */\n    function sendByCheque(address _to, uint256 _amount, bytes _userData, uint256 _nonce, uint8 v, bytes32 r, bytes32 s) public {\n        require(_to != address(this));\n\n        // Check if signature is valid, get signer's address and mark this cheque as used.\n        bytes memory prefix = \"\\x19Ethereum Signed Message:\\n32\";\n        bytes32 hash = keccak256(prefix, keccak256(_to, _amount, _userData, _nonce));\n        // bytes32 hash = keccak256(_to, _amount, _userData, _nonce);\n\n        address signer = ecrecover(hash, v, r, s);\n        require (signer != 0);\n        require (!usedNonces[signer][_nonce]);\n        usedNonces[signer][_nonce] = true;\n\n        // Transfer tokens\n        doSend(signer, _to, _amount, _userData, signer, \"\", true);\n    }\n\n    /**\n    * @notice Authorize a third party `_operator` to manage (send) `msg.sender`'s tokens.\n    * @param _operator The operator that wants to be Authorized\n    */\n    function authorizeOperator(address _operator) public {\n        require(_operator != msg.sender);\n        isOperatorFor[_operator][msg.sender] = true;\n        emit AuthorizedOperator(_operator, msg.sender);\n    }\n\n    /**\n    * @notice Revoke a third party `_operator`'s rights to manage (send) `msg.sender`'s tokens.\n    * @param _operator The operator that wants to be Revoked\n    */\n    function revokeOperator(address _operator) public {\n        require(_operator != msg.sender);\n        isOperatorFor[_operator][msg.sender] = false;\n        emit RevokedOperator(_operator, msg.sender);\n    }\n\n    /**\n    * @notice Send `_amount` of tokens on behalf of the address `from` to the address `to`.\n    * @param _from The address holding the tokens being sent\n    * @param _to The address of the recipient\n    * @param _amount The number of tokens to be sent\n    * @param _userData Data generated by the user to be sent to the recipient\n    * @param _operatorData Data generated by the operator to be sent to the recipient\n    */\n    function operatorSend(address _from, address _to, uint256 _amount, bytes _userData, bytes _operatorData) public {\n        require(isOperatorFor[msg.sender][_from]);\n        doSend(_from, _to, _amount, _userData, msg.sender, _operatorData, true);\n    }\n\n    /* -- Helper Functions -- */\n    /**\n    * @notice Internal function that ensures `_amount` is multiple of the granularity\n    * @param _amount The quantity that want's to be checked\n    */\n    function requireMultiple(uint256 _amount) internal pure {\n        require(_amount.div(granularity).mul(granularity) == _amount);\n    }\n\n    /**\n    * @notice Check whether an address is a regular address or not.\n    * @param _addr Address of the contract that has to be checked\n    * @return `true` if `_addr` is a regular address (not a contract)\n    */\n    function isRegularAddress(address _addr) internal constant returns(bool) {\n        if (_addr == 0) { return false; }\n        uint size;\n        assembly { size := extcodesize(_addr) } // solhint-disable-line no-inline-assembly\n        return size == 0;\n    }\n\n    /**\n    * @notice Helper function that checks for ERC777TokensSender on the sender and calls it.\n    *  May throw according to `_preventLocking`\n    * @param _from The address holding the tokens being sent\n    * @param _to The address of the recipient\n    * @param _amount The amount of tokens to be sent\n    * @param _userData Data generated by the user to be passed to the recipient\n    * @param _operatorData Data generated by the operator to be passed to the recipient\n    *  implementing `ERC777TokensSender`.\n    *  ERC777 native Send functions MUST set this parameter to `true`, and backwards compatible ERC20 transfer\n    *  functions SHOULD set this parameter to `false`.\n    */\n    function callSender(\n        address _operator,\n        address _from,\n        address _to,\n        uint256 _amount,\n        bytes _userData,\n        bytes _operatorData\n    ) private {\n        address senderImplementation = interfaceAddr(_from, \"ERC777TokensSender\");\n        if (senderImplementation != 0) {\n            ERC777TokensSender(senderImplementation).tokensToSend(\n                _operator, _from, _to, _amount, _userData, _operatorData);\n        }\n    }\n\n    /**\n    * @notice Helper function that checks for ERC777TokensRecipient on the recipient and calls it.\n    *  May throw according to `_preventLocking`\n    * @param _from The address holding the tokens being sent\n    * @param _to The address of the recipient\n    * @param _amount The number of tokens to be sent\n    * @param _userData Data generated by the user to be passed to the recipient\n    * @param _operatorData Data generated by the operator to be passed to the recipient\n    * @param _preventLocking `true` if you want this function to throw when tokens are sent to a contract not\n    *  implementing `ERC777TokensRecipient`.\n    *  ERC777 native Send functions MUST set this parameter to `true`, and backwards compatible ERC20 transfer\n    *  functions SHOULD set this parameter to `false`.\n    */\n    function callRecipient(\n        address _operator,\n        address _from,\n        address _to,\n        uint256 _amount,\n        bytes _userData,\n        bytes _operatorData,\n        bool _preventLocking\n    ) private {\n        address recipientImplementation = interfaceAddr(_to, \"ERC777TokensRecipient\");\n        if (recipientImplementation != 0) {\n            ERC777TokensRecipient(recipientImplementation).tokensReceived(\n                _operator, _from, _to, _amount, _userData, _operatorData);\n        } else if (_preventLocking) {\n            require(isRegularAddress(_to));\n        }\n    }\n\n    /**\n    * @notice Helper function actually performing the sending of tokens.\n    * @param _from The address holding the tokens being sent\n    * @param _to The address of the recipient\n    * @param _amount The number of tokens to be sent\n    * @param _userData Data generated by the user to be passed to the recipient\n    * @param _operatorData Data generated by the operator to be passed to the recipient\n    * @param _preventLocking `true` if you want this function to throw when tokens are sent to a contract not\n    *  implementing `erc777_tokenHolder`.\n    *  ERC777 native Send functions MUST set this parameter to `true`, and backwards compatible ERC20 transfer\n    *  functions SHOULD set this parameter to `false`.\n    */\n    function doSend(\n        address _from,\n        address _to,\n        uint256 _amount,\n        bytes _userData,\n        address _operator,\n        bytes _operatorData,\n        bool _preventLocking\n    )\n        private\n    {\n        requireMultiple(_amount);\n\n        callSender(_operator, _from, _to, _amount, _userData, _operatorData);\n\n        require(_to != 0x0);                  // forbid sending to 0x0 (=burning)\n        require(balanceOf[_from] >= _amount); // ensure enough funds\n\n        balanceOf[_from] = balanceOf[_from].sub(_amount);\n        balanceOf[_to] = balanceOf[_to].add(_amount);\n\n        callRecipient(_operator, _from, _to, _amount, _userData, _operatorData, _preventLocking);\n\n        emit Sent(_operator, _from, _to, _amount, _userData, _operatorData);\n        emit Transfer(_from, _to, _amount);\n    }\n\n    // ------- ERC20 Implementation ----------\n\n    /**\n     * @dev transfer token for a specified address\n     * @param _to The address to transfer to.\n     * @param _value The amount to be transferred.\n     */\n    function transfer(address _to, uint256 _value) public returns (bool) {\n        doSend(msg.sender, _to, _value, \"\", msg.sender, \"\", false);\n        return true;\n    }\n\n    /**\n     * @dev Transfer tokens from one address to another. Technically this is not ERC20 transferFrom but more ERC777 operatorSend.\n     * @param _from address The address which you want to send tokens from\n     * @param _to address The address which you want to transfer to\n     * @param _value uint256 the amount of tokens to be transferred\n     */\n    function transferFrom(address _from, address _to, uint256 _value) public returns (bool) {\n        require(isOperatorFor[msg.sender][_from]);\n        doSend(_from, _to, _value, \"\", msg.sender, \"\", true);\n        emit Transfer(_from, _to, _value);\n        return true;\n    }\n\n    /**\n\n     * @dev Originally in ERC20 this function to check the amount of tokens that an owner allowed to a spender.\n     *\n     * Function was added purly for backward compatibility with ERC20. Use operator logic from ERC777 instead.\n     * @param _owner address The address which owns the funds.\n     * @param _spender address The address which will spend the funds.\n     * @return A returning uint256 balanceOf _spender if it's active operator and 0 if not.\n     */\n    function allowance(address _owner, address _spender) public view returns (uint256 _amount) {\n        if (isOperatorFor[_spender][_owner]) {\n            _amount = balanceOf[_owner];\n        } else {\n            _amount = 0;\n        }\n    }\n\n    /**\n     * @dev Approve the passed address to spend tokens on behalf of msg.sender.\n     *\n     * This function is more authorizeOperator and revokeOperator from ERC777 that Approve from ERC20.\n     * Approve concept has several issues (e.g. https://github.com/ethereum/EIPs/issues/20#issuecomment-263524729),\n     * so I prefer to use operator concept. If you want to revoke approval, just put 0 into _value.\n     * @param _spender The address which will spend the funds.\n     * @param _value Fake value to be compatible with ERC20 requirements.\n     */\n    function approve(address _spender, uint256 _value) public returns (bool) {\n        require(_spender != msg.sender);\n\n        if (_value > 0) {\n            // Authorizing operator\n            isOperatorFor[_spender][msg.sender] = true;\n            emit AuthorizedOperator(_spender, msg.sender);\n        } else {\n            // Revoking operator\n            isOperatorFor[_spender][msg.sender] = false;\n            emit RevokedOperator(_spender, msg.sender);\n        }\n\n        emit Approval(msg.sender, _spender, _value);\n        return true;\n    }\n\n    // ------- Minting and burning ----------\n\n    /**\n    * @dev Function to mint tokens\n    * @param _to The address that will receive the minted tokens.\n    * @param _amount The amount of tokens to mint.\n    * @param _operatorData Data that will be passed to the recipient as a first transfer.\n    */\n    function mint(address _to, uint256 _amount, bytes _operatorData) public onlyOwner {\n        require (totalSupply.add(_amount) <= maxSupply);\n        requireMultiple(_amount);\n\n        totalSupply = totalSupply.add(_amount);\n        balanceOf[_to] = balanceOf[_to].add(_amount);\n\n        callRecipient(msg.sender, 0x0, _to, _amount, \"\", _operatorData, true);\n\n        emit Minted(msg.sender, _to, _amount, _operatorData);\n        emit Transfer(0x0, _to, _amount);\n    }\n\n    /**\n    * @dev Function to burn sender's tokens\n    * @param _amount The amount of tokens to burn.\n    * @return A boolean that indicates if the operation was successful.\n    */\n    function burn(uint256 _amount, bytes _userData) public {\n        require (_amount > 0);\n        require (balanceOf[msg.sender] >= _amount);\n        requireMultiple(_amount);\n\n        callSender(msg.sender, msg.sender, 0x0, _amount, _userData, \"\");\n\n        totalSupply = totalSupply.sub(_amount);\n        balanceOf[msg.sender] = balanceOf[msg.sender].sub(_amount);\n\n        emit Burned(msg.sender, msg.sender, _amount, _userData, \"\");\n        emit Transfer(msg.sender, 0x0, _amount);\n    }\n\n}\n",
  "sourcePath": "/Users/jaro/Dev/JaroCoin/contracts/contracts/JaroCoinToken.sol",
  "compiler": {
    "name": "solc",
    "version": "0.4.21+commit.dfe3193c.Emscripten.clang"
  },
  "schemaVersion": "2.0.0",
  "updatedAt": "2018-04-14T21:00:15.076Z"
}