{
  "contractName": "JaroCoinCrowdsale",
  "abi": [
    {
      "constant": true,
      "inputs": [],
      "name": "satoshiRaised",
      "outputs": [
        {
          "name": "",
          "type": "uint256"
        }
      ],
      "payable": false,
      "stateMutability": "view",
      "type": "function"
    },
    {
      "constant": true,
      "inputs": [],
      "name": "saleStartTime",
      "outputs": [
        {
          "name": "",
          "type": "uint256"
        }
      ],
      "payable": false,
      "stateMutability": "view",
      "type": "function"
    },
    {
      "constant": true,
      "inputs": [],
      "name": "exhcnageRateOracle",
      "outputs": [
        {
          "name": "",
          "type": "address"
        }
      ],
      "payable": false,
      "stateMutability": "view",
      "type": "function"
    },
    {
      "constant": true,
      "inputs": [],
      "name": "isActive",
      "outputs": [
        {
          "name": "",
          "type": "bool"
        }
      ],
      "payable": false,
      "stateMutability": "view",
      "type": "function"
    },
    {
      "constant": true,
      "inputs": [],
      "name": "rate",
      "outputs": [
        {
          "name": "",
          "type": "uint256"
        }
      ],
      "payable": false,
      "stateMutability": "view",
      "type": "function"
    },
    {
      "constant": false,
      "inputs": [
        {
          "name": "_exchangeRateOracle",
          "type": "address"
        }
      ],
      "name": "setExchangeRateOracle",
      "outputs": [],
      "payable": false,
      "stateMutability": "nonpayable",
      "type": "function"
    },
    {
      "constant": false,
      "inputs": [
        {
          "name": "_rate",
          "type": "uint256"
        }
      ],
      "name": "updateConvertionRate",
      "outputs": [],
      "payable": false,
      "stateMutability": "nonpayable",
      "type": "function"
    },
    {
      "constant": true,
      "inputs": [],
      "name": "WALLET",
      "outputs": [
        {
          "name": "",
          "type": "address"
        }
      ],
      "payable": false,
      "stateMutability": "view",
      "type": "function"
    },
    {
      "constant": true,
      "inputs": [],
      "name": "EXCHANGE_RATE_DECIMALS",
      "outputs": [
        {
          "name": "",
          "type": "uint8"
        }
      ],
      "payable": false,
      "stateMutability": "view",
      "type": "function"
    },
    {
      "constant": true,
      "inputs": [],
      "name": "sleepContract",
      "outputs": [
        {
          "name": "",
          "type": "address"
        }
      ],
      "payable": false,
      "stateMutability": "view",
      "type": "function"
    },
    {
      "constant": true,
      "inputs": [],
      "name": "conversionRate",
      "outputs": [
        {
          "name": "",
          "type": "uint256"
        }
      ],
      "payable": false,
      "stateMutability": "view",
      "type": "function"
    },
    {
      "constant": true,
      "inputs": [],
      "name": "owner",
      "outputs": [
        {
          "name": "",
          "type": "address"
        }
      ],
      "payable": false,
      "stateMutability": "view",
      "type": "function"
    },
    {
      "constant": true,
      "inputs": [],
      "name": "personalContract",
      "outputs": [
        {
          "name": "",
          "type": "address"
        }
      ],
      "payable": false,
      "stateMutability": "view",
      "type": "function"
    },
    {
      "constant": true,
      "inputs": [],
      "name": "tokensToMint",
      "outputs": [
        {
          "name": "",
          "type": "uint256"
        }
      ],
      "payable": false,
      "stateMutability": "view",
      "type": "function"
    },
    {
      "constant": true,
      "inputs": [],
      "name": "MAX_AMOUNT",
      "outputs": [
        {
          "name": "",
          "type": "uint256"
        }
      ],
      "payable": false,
      "stateMutability": "view",
      "type": "function"
    },
    {
      "constant": false,
      "inputs": [
        {
          "name": "_exchangeRate",
          "type": "uint256"
        }
      ],
      "name": "setExchangeRate",
      "outputs": [],
      "payable": false,
      "stateMutability": "nonpayable",
      "type": "function"
    },
    {
      "constant": true,
      "inputs": [],
      "name": "familyContract",
      "outputs": [
        {
          "name": "",
          "type": "address"
        }
      ],
      "payable": false,
      "stateMutability": "view",
      "type": "function"
    },
    {
      "constant": false,
      "inputs": [
        {
          "name": "newOwner",
          "type": "address"
        }
      ],
      "name": "transferOwnership",
      "outputs": [],
      "payable": false,
      "stateMutability": "nonpayable",
      "type": "function"
    },
    {
      "constant": true,
      "inputs": [],
      "name": "token",
      "outputs": [
        {
          "name": "",
          "type": "address"
        }
      ],
      "payable": false,
      "stateMutability": "view",
      "type": "function"
    },
    {
      "inputs": [
        {
          "name": "_owner",
          "type": "address"
        },
        {
          "name": "_token",
          "type": "address"
        },
        {
          "name": "_familyOwner",
          "type": "address"
        },
        {
          "name": "_personalOwner",
          "type": "address"
        }
      ],
      "payable": false,
      "stateMutability": "nonpayable",
      "type": "constructor"
    },
    {
      "payable": true,
      "stateMutability": "payable",
      "type": "fallback"
    },
    {
      "anonymous": false,
      "inputs": [
        {
          "indexed": true,
          "name": "purchaser",
          "type": "address"
        },
        {
          "indexed": true,
          "name": "beneficiary",
          "type": "address"
        },
        {
          "indexed": false,
          "name": "value",
          "type": "uint256"
        },
        {
          "indexed": false,
          "name": "amount",
          "type": "uint256"
        }
      ],
      "name": "TokenPurchase",
      "type": "event"
    },
    {
      "anonymous": false,
      "inputs": [
        {
          "indexed": false,
          "name": "startTime",
          "type": "uint256"
        },
        {
          "indexed": false,
          "name": "amount",
          "type": "uint256"
        }
      ],
      "name": "SaleActivated",
      "type": "event"
    },
    {
      "anonymous": false,
      "inputs": [],
      "name": "SaleClosed",
      "type": "event"
    },
    {
      "anonymous": false,
      "inputs": [
        {
          "indexed": true,
          "name": "previousOwner",
          "type": "address"
        },
        {
          "indexed": true,
          "name": "newOwner",
          "type": "address"
        }
      ],
      "name": "OwnershipTransferred",
      "type": "event"
    },
    {
      "constant": false,
      "inputs": [
        {
          "name": "_owner",
          "type": "address"
        },
        {
          "name": "_token",
          "type": "address"
        },
        {
          "name": "_familyOwner",
          "type": "address"
        },
        {
          "name": "_personalOwner",
          "type": "address"
        }
      ],
      "name": "initialize",
      "outputs": [],
      "payable": false,
      "stateMutability": "nonpayable",
      "type": "function"
    },
    {
      "constant": false,
      "inputs": [
        {
          "name": "_timeStamp",
          "type": "uint256"
        },
        {
          "name": "_bonus",
          "type": "uint16"
        },
        {
          "name": "v",
          "type": "uint8"
        },
        {
          "name": "r",
          "type": "bytes32"
        },
        {
          "name": "s",
          "type": "bytes32"
        }
      ],
      "name": "coupon",
      "outputs": [],
      "payable": true,
      "stateMutability": "payable",
      "type": "function"
    },
    {
      "constant": false,
      "inputs": [
        {
          "name": "_beneficiary",
          "type": "address"
        }
      ],
      "name": "buyTokens",
      "outputs": [],
      "payable": true,
      "stateMutability": "payable",
      "type": "function"
    },
    {
      "constant": false,
      "inputs": [
        {
          "name": "_startTime",
          "type": "uint256"
        }
      ],
      "name": "startSale",
      "outputs": [],
      "payable": false,
      "stateMutability": "nonpayable",
      "type": "function"
    },
    {
      "constant": false,
      "inputs": [],
      "name": "closeSale",
      "outputs": [],
      "payable": false,
      "stateMutability": "nonpayable",
      "type": "function"
    }
  ],
  "bytecode": "0x6080604052600b805461ffff191690553480156200001c57600080fd5b506040516080806200361f8339810160409081528151602083015191830151606090930151909290620000583364010000000062000079810204565b6200006f848484846401000000006200009b810204565b5050505062000339565b60008054600160a060020a031916600160a060020a0392909216919091179055565b600b54610100900460ff1615620000b157600080fd5b60058054600160a060020a031916600160a060020a038516179055620000eb836907518058bd45bc000000640100000000620002c1810204565b60068054600160a060020a031916600160a060020a03929092169190911790556200012a83690492f037764b9580000064010000000062000309810204565b60078054600160a060020a031916600160a060020a039290921691909117905562000169836902be902146fa2680000064010000000062000309810204565b60088054600160a060020a031916600160a060020a03928316179055600754604080517ff2fde38b00000000000000000000000000000000000000000000000000000000815285841660048201529051919092169163f2fde38b91602480830192600092919082900301818387803b158015620001e557600080fd5b505af1158015620001fa573d6000803e3d6000fd5b5050600854604080517ff2fde38b000000000000000000000000000000000000000000000000000000008152600160a060020a038681166004830152915191909216935063f2fde38b9250602480830192600092919082900301818387803b1580156200026657600080fd5b505af11580156200027b573d6000803e3d6000fd5b505066038d7ea4c680006004555050642794ca24006001556000600355620002ac8464010000000062000079810204565b5050600b805461ff0019166101001790555050565b60008282620002cf62000317565b600160a060020a0390921682526020820152604080519182900301906000f08015801562000301573d6000803e3d6000fd5b509392505050565b60008282620002cf62000328565b6040516105ad80620027aa83390190565b6040516108c88062002d5783390190565b61246180620003496000396000f3006080604052600436106200013d5763ffffffff60e060020a6000350416630e3ab61d81146200017757806311ca3c6314620001925780631cbaee2d14620001bc5780632059aea314620001d457806322f3e2d414620002085780632c4e722e14620002345780633ae9133d146200024c57806341d8bc5f146200026c5780634ac9fc3714620002905780636d9cdbc614620002ab5780637150697714620002c3578063764c9d3214620002f15780637ffdf53e14620003095780638da5cb5b1462000321578063a1d279251462000339578063cbafee8a1462000351578063d40dc8701462000369578063db068e0e1462000381578063e01fff13146200039c578063ec8ac4d814620003b4578063ee55efee14620003ca578063f2fde38b14620003e2578063f8c8765e1462000406578063fc0c546a146200043c575b600b5460ff1615156200014f57600080fd5b600a546200015c62000454565b116200016757600080fd5b620001753334600062000458565b005b3480156200018457600080fd5b50620001756004356200063e565b3480156200019f57600080fd5b50620001aa62000d01565b60408051918252519081900360200190f35b348015620001c957600080fd5b50620001aa62000d07565b348015620001e157600080fd5b50620001ec62000d0d565b60408051600160a060020a039092168252519081900360200190f35b3480156200021557600080fd5b506200022062000d1c565b604080519115158252519081900360200190f35b3480156200024157600080fd5b50620001aa62000d25565b6200017560043561ffff6024351660ff6044351660643560843562000d2b565b3480156200027957600080fd5b5062000175600160a060020a036004351662000edc565b3480156200029d57600080fd5b506200017560043562000f39565b348015620002b857600080fd5b50620001ec62000f83565b348015620002d057600080fd5b50620002db62000f9b565b6040805160ff9092168252519081900360200190f35b348015620002fe57600080fd5b50620001ec62000fa0565b3480156200031657600080fd5b50620001aa62000faf565b3480156200032e57600080fd5b50620001ec62000fb5565b3480156200034657600080fd5b50620001ec62000fc4565b3480156200035e57600080fd5b50620001aa62000fd3565b3480156200037657600080fd5b50620001aa62000fd9565b3480156200038e57600080fd5b506200017560043562000fe8565b348015620003a957600080fd5b50620001ec6200102b565b62000175600160a060020a03600435166200103a565b348015620003d757600080fd5b506200017562001075565b348015620003ef57600080fd5b5062000175600160a060020a036004351662001099565b3480156200041357600080fd5b5062000175600160a060020a03600435811690602435811690604435811690606435166200110b565b3480156200044957600080fd5b50620001ec62001341565b4290565b600080808080600160a060020a03881615156200047457600080fd5b600087116200048257600080fd5b6001548795506200049b90869063ffffffff6200135016565b9350620004e06064620004d38860640161ffff16620004c6600454896200136d90919063ffffffff16565b9063ffffffff6200136d16565b9063ffffffff6200135016565b9250620004ee8884620013a3565b9150600082116200050157600062000531565b62000531600454620004d3600154620004c68a60640161ffff16620004d36064896200136d90919063ffffffff16565b905062000545858263ffffffff6200141916565b6003549095506200055d908563ffffffff6200142c16565b60035560008111156200059a57604051339082156108fc029083906000818181858888f1935050505015801562000598573d6000803e3d6000fd5b505b600160a060020a038816337f623b3804fa71d67900d064613da8f94b9617215ee90799290593e1745087ad1887620005d9878763ffffffff6200141916565b6040805192835260208301919091528051918290030190a360405173eff42c79c0abea9958432dc82febc4d65f3d24a39086156108fc029087906000818181858888f1935050505015801562000633573d6000803e3d6000fd5b505050505050505050565b6000805481908190819081908190600160a060020a031633146200066157600080fd5b600b5460ff16156200067257600080fd5b6200067c62000454565b87116200068857600080fd5b600a541580620006b0575062278d00620006ae600a54896200141990919063ffffffff16565b115b1515620006bc57600080fd5b600660009054906101000a9004600160a060020a0316600160a060020a03166308003f786040518163ffffffff1660e060020a028152600401602060405180830381600087803b1580156200071057600080fd5b505af115801562000725573d6000803e3d6000fd5b505050506040513d60208110156200073c57600080fd5b5050600554600654604080517f70a08231000000000000000000000000000000000000000000000000000000008152600160a060020a039283166004820152905191909216916370a082319160248083019260209291908290030181600087803b158015620007aa57600080fd5b505af1158015620007bf573d6000803e3d6000fd5b505050506040513d6020811015620007d657600080fd5b5051600754604080517f08003f780000000000000000000000000000000000000000000000000000000081529051929850600160a060020a03909116916308003f78916004808201926020929091908290030181600087803b1580156200083c57600080fd5b505af115801562000851573d6000803e3d6000fd5b505050506040513d60208110156200086857600080fd5b5050600754604080517f0dca59c10000000000000000000000000000000000000000000000000000000081529051620009a292600160a060020a031691630dca59c19160048083019260209291908290030181600087803b158015620008cd57600080fd5b505af1158015620008e2573d6000803e3d6000fd5b505050506040513d6020811015620008f957600080fd5b5051600554600754604080517f70a08231000000000000000000000000000000000000000000000000000000008152600160a060020a039283166004820152905191909216916370a082319160248083019260209291908290030181600087803b1580156200096757600080fd5b505af11580156200097c573d6000803e3d6000fd5b505050506040513d60208110156200099357600080fd5b50519063ffffffff6200142c16565b9450600860009054906101000a9004600160a060020a0316600160a060020a03166308003f786040518163ffffffff1660e060020a028152600401602060405180830381600087803b158015620009f857600080fd5b505af115801562000a0d573d6000803e3d6000fd5b505050506040513d602081101562000a2457600080fd5b5050600854604080517f0dca59c1000000000000000000000000000000000000000000000000000000008152905162000b2392600160a060020a031691630dca59c19160048083019260209291908290030181600087803b15801562000a8957600080fd5b505af115801562000a9e573d6000803e3d6000fd5b505050506040513d602081101562000ab557600080fd5b5051600554600854604080517f70a08231000000000000000000000000000000000000000000000000000000008152600160a060020a039283166004820152905191909216916370a082319160248083019260209291908290030181600087803b1580156200096757600080fd5b935062000b5b8662000b4e6028620004c66a115eec47f6cf7e35000000606463ffffffff6200135016565b9063ffffffff6200141916565b925062000b868562000b4e6019620004c66a115eec47f6cf7e35000000606463ffffffff6200135016565b915062000bb18462000b4e600f620004c66a115eec47f6cf7e35000000606463ffffffff6200135016565b60065490915062000bcc90600160a060020a0316846200143c565b60075462000be490600160a060020a0316836200143c565b60085462000bfc90600160a060020a0316826200143c565b600554604080517f18160ddd000000000000000000000000000000000000000000000000000000008152905162000ca692600160a060020a0316916318160ddd9160048083019260209291908290030181600087803b15801562000c5f57600080fd5b505af115801562000c74573d6000803e3d6000fd5b505050506040513d602081101562000c8b57600080fd5b50516a115eec47f6cf7e350000009063ffffffff6200141916565b6009819055600a889055600b805460ff1916600117905560408051898152602081019290925280517fb5294ab8aa3e7fb5cb2ad484b416409f3f6eae057ebac0ceeb04c03a45f5d00e9281900390910190a150505050505050565b60035481565b600a5481565b600254600160a060020a031681565b600b5460ff1681565b60045481565b600b54606090600090819060ff16151562000d4557600080fd5b600a5462000d5262000454565b1162000d5d57600080fd5b62000d6762000454565b88101562000d7457600080fd5b604080518082018252601c81527f19457468657265756d205369676e6564204d6573736167653a0a333200000000602080830191825283518c81527e0100000000000000000000000000000000000000000000000000000000000061ffff8d1602918101919091529251928390036022018320825192965086939092909182918083835b6020831062000e195780518252601f19909201916020918201910162000df8565b51815160209384036101000a6000190180199092169116179052920193845250604080519384900382018420600080865285840180845282905260ff8d1686840152606086018c9052608086018b905291519097506001955060a080860195939450601f198201938290030191865af115801562000e9b573d6000803e3d6000fd5b5050604051601f190151600054909250600160a060020a03808416911614905062000ec557600080fd5b62000ed233348962000458565b5050505050505050565b600054600160a060020a0316331462000ef457600080fd5b600160a060020a038116151562000f0a57600080fd5b6002805473ffffffffffffffffffffffffffffffffffffffff1916600160a060020a0392909216919091179055565b60008054600160a060020a0316331462000f5257600080fd5b6000821162000f6057600080fd5b50670de0b6b3a764000062000f7c818363ffffffff6200135016565b6001555050565b73eff42c79c0abea9958432dc82febc4d65f3d24a381565b600381565b600654600160a060020a031681565b60015481565b600054600160a060020a031681565b600854600160a060020a031681565b60095481565b6a115eec47f6cf7e3500000081565b600254600160a060020a03163314806200100c5750600054600160a060020a031633145b15156200101857600080fd5b600081116200102657600080fd5b600155565b600754600160a060020a031681565b600b5460ff1615156200104c57600080fd5b600a546200105962000454565b116200106457600080fd5b620010728134600062000458565b50565b600054600160a060020a031633146200108d57600080fd5b62001097620014df565b565b600054600160a060020a03163314620010b157600080fd5b600160a060020a0381161515620010c757600080fd5b60008054604051600160a060020a03808516939216917f8be0079c531659141344cd1fd0a4f28419497f9722a3daafe3b4186f6b6457e091a3620010728162001519565b600b54610100900460ff16156200112157600080fd5b6005805473ffffffffffffffffffffffffffffffffffffffff1916600160a060020a0385161790556200115f836907518058bd45bc00000062001548565b6006805473ffffffffffffffffffffffffffffffffffffffff1916600160a060020a0392909216919091179055620011a283690492f037764b9580000062001590565b6007805473ffffffffffffffffffffffffffffffffffffffff1916600160a060020a0392909216919091179055620011e5836902be902146fa2680000062001590565b6008805473ffffffffffffffffffffffffffffffffffffffff1916600160a060020a03928316179055600754604080517ff2fde38b00000000000000000000000000000000000000000000000000000000815285841660048201529051919092169163f2fde38b91602480830192600092919082900301818387803b1580156200126e57600080fd5b505af115801562001283573d6000803e3d6000fd5b5050600854604080517ff2fde38b000000000000000000000000000000000000000000000000000000008152600160a060020a038681166004830152915191909216935063f2fde38b9250602480830192600092919082900301818387803b158015620012ef57600080fd5b505af115801562001304573d6000803e3d6000fd5b505066038d7ea4c680006004555050642794ca240060015560006003556200132c8462001519565b5050600b805461ff0019166101001790555050565b600554600160a060020a031681565b60008082848115156200135f57fe5b0490508091505b5092915050565b60008083151562001382576000915062001366565b508282028284828115156200139357fe5b04146200139c57fe5b9392505050565b60008060095483101515620013eb57620013c0846009546200143c565b600954620013d690849063ffffffff6200141916565b9050620013e2620014df565b80915062001366565b60095462001400908463ffffffff6200141916565b6009556200140f84846200143c565b5060009392505050565b6000828211156200142657fe5b50900390565b6000828201838110156200139c57fe5b6000811115620014db57600554604080517f94d008ef000000000000000000000000000000000000000000000000000000008152600160a060020a038581166004830152602482018590526060604483015260006064830181905292519316926394d008ef9260a48084019391929182900301818387803b158015620014c157600080fd5b505af1158015620014d6573d6000803e3d6000fd5b505050505b5050565b60006009819055600b805460ff191690556040517f4c013bd73202fde3c7cfe26ca486d0882f2c5b2fc9c761b15212f759bd2347dd9190a1565b6000805473ffffffffffffffffffffffffffffffffffffffff1916600160a060020a0392909216919091179055565b60008282620015566200159e565b600160a060020a0390921682526020820152604080519182900301906000f08015801562001588573d6000803e3d6000fd5b509392505050565b6000828262001556620015af565b6040516105ad80620015c183390190565b6040516108c88062001b6e833901905600608060405260008054600160a060020a03191673991a1bcb077599290d7305493c9a630c20f8b79817905534801561003657600080fd5b506040516040806105ad8339810160408181528251602093840151828401909252601583527f455243373737546f6b656e73526563697069656e740000000000000000000000938301939093529061009790306401000000006100cf810204565b60038054600160a060020a031916600160a060020a0384161790556100c36401000000006101be810204565b600155600255506101c2565b6000826040518082805190602001908083835b602083106101015780518252601f1990920191602091820191016100e2565b5181516020939093036101000a600019018019909116921691909117905260408051919093018190038120600080547f29965a1d00000000000000000000000000000000000000000000000000000000845230600485015260248401839052600160a060020a038a8116604486015295519298509490941695506329965a1d94506064808301949350909182900301818387803b1580156101a157600080fd5b505af11580156101b5573d6000803e3d6000fd5b50505050505050565b4290565b6103dc806101d16000396000f30060806040526004361061006b5763ffffffff7c010000000000000000000000000000000000000000000000000000000060003504166223de29811461007057806308003f78146100bc5780634b45b97d146100e3578063bbce2c17146100f8578063fc0c546a1461010d575b600080fd5b34801561007c57600080fd5b506100ba60048035600160a060020a03908116916024803583169260443516916064359160843580820192908101359160a43590810191013561013e565b005b3480156100c857600080fd5b506100d161020d565b60408051918252519081900360200190f35b3480156100ef57600080fd5b506100d1610327565b34801561010457600080fd5b506100d161032d565b34801561011957600080fd5b50610122610333565b60408051600160a060020a039092168252519081900360200190f35b7febd4fa6a0a7c7ce84af5e1ad6e1fa013f744f3db66311c33c185d8a80ab4420788888888888888886040518089600160a060020a0316600160a060020a0316815260200188600160a060020a0316600160a060020a0316815260200187600160a060020a0316600160a060020a03168152602001868152602001806020018060200183810383528787828181526020019250808284379091018481038352858152602001905085858082843760405192018290039c50909a5050505050505050505050a15050505050505050565b60008060008061022d600154610221610342565b9063ffffffff61034616565b92506000915062015180831061032057610250836201518063ffffffff61035816565b90506102676002548261036f90919063ffffffff16565b600354604080517ffe9d930300000000000000000000000000000000000000000000000000000000815260048101849052602481018290526000604482018190529151939550600160a060020a039092169263fe9d930392608480820193929182900301818387803b1580156102dc57600080fd5b505af11580156102f0573d6000803e3d6000fd5b5050505061031c61030d620151808361036f90919063ffffffff16565b6001549063ffffffff6103a116565b6001555b5092915050565b60025481565b60015481565b600354600160a060020a031681565b4290565b60008282111561035257fe5b50900390565b600080828481151561036657fe5b04949350505050565b6000808315156103825760009150610320565b5082820282848281151561039257fe5b041461039a57fe5b9392505050565b60008282018381101561039a57fe00a165627a7a72305820060e3385d7d19d6e962192c73bdb60346198a42cb4a85f39ae27008f348d98670029608060405260018054600160a060020a03191673991a1bcb077599290d7305493c9a630c20f8b7981790556000600481905560055534801561004057600080fd5b506040516040806108c883398101604052805160209091015161006b336401000000006100ea810204565b60408051808201909152601581527f455243373737546f6b656e73526563697069656e74000000000000000000000060208201526100b2903064010000000061010c810204565b60068054600160a060020a031916600160a060020a0384161790556100de6401000000006101fb810204565b600255600355506101ff565b60008054600160a060020a031916600160a060020a0392909216919091179055565b6000826040518082805190602001908083835b6020831061013e5780518252601f19909201916020918201910161011f565b5181516020939093036101000a6000190180199091169216919091179052604080519190930181900381206001547f29965a1d00000000000000000000000000000000000000000000000000000000835230600484015260248301829052600160a060020a03898116604485015294519197509390931694506329965a1d9350606480820193600093509182900301818387803b1580156101de57600080fd5b505af11580156101f2573d6000803e3d6000fd5b50505050505050565b4290565b6106ba8061020e6000396000f3006080604052600436106100a25763ffffffff7c010000000000000000000000000000000000000000000000000000000060003504166223de2981146100a757806308003f78146100f35780630dca59c11461011a5780632dcd05b81461012f5780634b45b97d146101445780638da5cb5b14610159578063a9059cbb1461018a578063bbce2c17146101ae578063f2fde38b146101c3578063fc0c546a146101e4575b600080fd5b3480156100b357600080fd5b506100f160048035600160a060020a03908116916024803583169260443516916064359160843580820192908101359160a4359081019101356101f9565b005b3480156100ff57600080fd5b50610108610309565b60408051918252519081900360200190f35b34801561012657600080fd5b50610108610463565b34801561013b57600080fd5b50610108610469565b34801561015057600080fd5b5061010861046f565b34801561016557600080fd5b5061016e610475565b60408051600160a060020a039092168252519081900360200190f35b34801561019657600080fd5b506100f1600160a060020a0360043516602435610484565b3480156101ba57600080fd5b5061010861056b565b3480156101cf57600080fd5b506100f1600160a060020a0360043516610571565b3480156101f057600080fd5b5061016e6105e2565b600654600160a060020a0316331461021057600080fd5b846004541015610221576000610234565b600454610234908663ffffffff6105f116565b6004819055507febd4fa6a0a7c7ce84af5e1ad6e1fa013f744f3db66311c33c185d8a80ab4420788888888888888886040518089600160a060020a0316600160a060020a0316815260200188600160a060020a0316600160a060020a0316815260200187600160a060020a0316600160a060020a03168152602001868152602001806020018060200183810383528787828181526020019250808284379091018481038352858152602001905085858082843760405192018290039c50909a5050505050505050505050a15050505050505050565b60008060008061032960025461031d610603565b9063ffffffff6105f116565b92506000915062015180831061045c5761034c836201518063ffffffff61060716565b90506103636003548261061e90919063ffffffff16565b91508160055410151561038b57600554610383908363ffffffff6105f116565b600555610433565b600654600554600160a060020a039091169063fe9d9303906103b490859063ffffffff6105f116565b604080517c010000000000000000000000000000000000000000000000000000000063ffffffff8516028152600481019290925260248201819052600060448301819052905160848084019382900301818387803b15801561041557600080fd5b505af1158015610429573d6000803e3d6000fd5b5050600060055550505b610458610449826201518063ffffffff61061e16565b6002549063ffffffff61065016565b6002555b5092915050565b60045481565b60055481565b60035481565b600054600160a060020a031681565b600054600160a060020a0316331461049b57600080fd5b6005546104ae908263ffffffff61065016565b6005556004546104c4908263ffffffff61065016565b6004908155600654604080517fa9059cbb000000000000000000000000000000000000000000000000000000008152600160a060020a0386811694820194909452602481018590529051929091169163a9059cbb916044808201926020929091908290030181600087803b15801561053b57600080fd5b505af115801561054f573d6000803e3d6000fd5b505050506040513d602081101561056557600080fd5b50505050565b60025481565b600054600160a060020a0316331461058857600080fd5b600160a060020a038116151561059d57600080fd5b60008054604051600160a060020a03808516939216917f8be0079c531659141344cd1fd0a4f28419497f9722a3daafe3b4186f6b6457e091a36105df8161065f565b50565b600654600160a060020a031681565b6000828211156105fd57fe5b50900390565b4290565b600080828481151561061557fe5b04949350505050565b600080831515610631576000915061045c565b5082820282848281151561064157fe5b041461064957fe5b9392505050565b60008282018381101561064957fe5b6000805473ffffffffffffffffffffffffffffffffffffffff1916600160a060020a03929092169190911790555600a165627a7a72305820d673bf9663e119b182227accb2bf63cd751a740d7f9426f8a8372867f43912c50029a165627a7a7230582091153ebbb81f57aaca166efeb3b7b673b502d6a35e8a5929f74c072793647d500029608060405260008054600160a060020a03191673991a1bcb077599290d7305493c9a630c20f8b79817905534801561003657600080fd5b506040516040806105ad8339810160408181528251602093840151828401909252601583527f455243373737546f6b656e73526563697069656e740000000000000000000000938301939093529061009790306401000000006100cf810204565b60038054600160a060020a031916600160a060020a0384161790556100c36401000000006101be810204565b600155600255506101c2565b6000826040518082805190602001908083835b602083106101015780518252601f1990920191602091820191016100e2565b5181516020939093036101000a600019018019909116921691909117905260408051919093018190038120600080547f29965a1d00000000000000000000000000000000000000000000000000000000845230600485015260248401839052600160a060020a038a8116604486015295519298509490941695506329965a1d94506064808301949350909182900301818387803b1580156101a157600080fd5b505af11580156101b5573d6000803e3d6000fd5b50505050505050565b4290565b6103dc806101d16000396000f30060806040526004361061006b5763ffffffff7c010000000000000000000000000000000000000000000000000000000060003504166223de29811461007057806308003f78146100bc5780634b45b97d146100e3578063bbce2c17146100f8578063fc0c546a1461010d575b600080fd5b34801561007c57600080fd5b506100ba60048035600160a060020a03908116916024803583169260443516916064359160843580820192908101359160a43590810191013561013e565b005b3480156100c857600080fd5b506100d161020d565b60408051918252519081900360200190f35b3480156100ef57600080fd5b506100d1610327565b34801561010457600080fd5b506100d161032d565b34801561011957600080fd5b50610122610333565b60408051600160a060020a039092168252519081900360200190f35b7febd4fa6a0a7c7ce84af5e1ad6e1fa013f744f3db66311c33c185d8a80ab4420788888888888888886040518089600160a060020a0316600160a060020a0316815260200188600160a060020a0316600160a060020a0316815260200187600160a060020a0316600160a060020a03168152602001868152602001806020018060200183810383528787828181526020019250808284379091018481038352858152602001905085858082843760405192018290039c50909a5050505050505050505050a15050505050505050565b60008060008061022d600154610221610342565b9063ffffffff61034616565b92506000915062015180831061032057610250836201518063ffffffff61035816565b90506102676002548261036f90919063ffffffff16565b600354604080517ffe9d930300000000000000000000000000000000000000000000000000000000815260048101849052602481018290526000604482018190529151939550600160a060020a039092169263fe9d930392608480820193929182900301818387803b1580156102dc57600080fd5b505af11580156102f0573d6000803e3d6000fd5b5050505061031c61030d620151808361036f90919063ffffffff16565b6001549063ffffffff6103a116565b6001555b5092915050565b60025481565b60015481565b600354600160a060020a031681565b4290565b60008282111561035257fe5b50900390565b600080828481151561036657fe5b04949350505050565b6000808315156103825760009150610320565b5082820282848281151561039257fe5b041461039a57fe5b9392505050565b60008282018381101561039a57fe00a165627a7a72305820060e3385d7d19d6e962192c73bdb60346198a42cb4a85f39ae27008f348d98670029608060405260018054600160a060020a03191673991a1bcb077599290d7305493c9a630c20f8b7981790556000600481905560055534801561004057600080fd5b506040516040806108c883398101604052805160209091015161006b336401000000006100ea810204565b60408051808201909152601581527f455243373737546f6b656e73526563697069656e74000000000000000000000060208201526100b2903064010000000061010c810204565b60068054600160a060020a031916600160a060020a0384161790556100de6401000000006101fb810204565b600255600355506101ff565b60008054600160a060020a031916600160a060020a0392909216919091179055565b6000826040518082805190602001908083835b6020831061013e5780518252601f19909201916020918201910161011f565b5181516020939093036101000a6000190180199091169216919091179052604080519190930181900381206001547f29965a1d00000000000000000000000000000000000000000000000000000000835230600484015260248301829052600160a060020a03898116604485015294519197509390931694506329965a1d9350606480820193600093509182900301818387803b1580156101de57600080fd5b505af11580156101f2573d6000803e3d6000fd5b50505050505050565b4290565b6106ba8061020e6000396000f3006080604052600436106100a25763ffffffff7c010000000000000000000000000000000000000000000000000000000060003504166223de2981146100a757806308003f78146100f35780630dca59c11461011a5780632dcd05b81461012f5780634b45b97d146101445780638da5cb5b14610159578063a9059cbb1461018a578063bbce2c17146101ae578063f2fde38b146101c3578063fc0c546a146101e4575b600080fd5b3480156100b357600080fd5b506100f160048035600160a060020a03908116916024803583169260443516916064359160843580820192908101359160a4359081019101356101f9565b005b3480156100ff57600080fd5b50610108610309565b60408051918252519081900360200190f35b34801561012657600080fd5b50610108610463565b34801561013b57600080fd5b50610108610469565b34801561015057600080fd5b5061010861046f565b34801561016557600080fd5b5061016e610475565b60408051600160a060020a039092168252519081900360200190f35b34801561019657600080fd5b506100f1600160a060020a0360043516602435610484565b3480156101ba57600080fd5b5061010861056b565b3480156101cf57600080fd5b506100f1600160a060020a0360043516610571565b3480156101f057600080fd5b5061016e6105e2565b600654600160a060020a0316331461021057600080fd5b846004541015610221576000610234565b600454610234908663ffffffff6105f116565b6004819055507febd4fa6a0a7c7ce84af5e1ad6e1fa013f744f3db66311c33c185d8a80ab4420788888888888888886040518089600160a060020a0316600160a060020a0316815260200188600160a060020a0316600160a060020a0316815260200187600160a060020a0316600160a060020a03168152602001868152602001806020018060200183810383528787828181526020019250808284379091018481038352858152602001905085858082843760405192018290039c50909a5050505050505050505050a15050505050505050565b60008060008061032960025461031d610603565b9063ffffffff6105f116565b92506000915062015180831061045c5761034c836201518063ffffffff61060716565b90506103636003548261061e90919063ffffffff16565b91508160055410151561038b57600554610383908363ffffffff6105f116565b600555610433565b600654600554600160a060020a039091169063fe9d9303906103b490859063ffffffff6105f116565b604080517c010000000000000000000000000000000000000000000000000000000063ffffffff8516028152600481019290925260248201819052600060448301819052905160848084019382900301818387803b15801561041557600080fd5b505af1158015610429573d6000803e3d6000fd5b5050600060055550505b610458610449826201518063ffffffff61061e16565b6002549063ffffffff61065016565b6002555b5092915050565b60045481565b60055481565b60035481565b600054600160a060020a031681565b600054600160a060020a0316331461049b57600080fd5b6005546104ae908263ffffffff61065016565b6005556004546104c4908263ffffffff61065016565b6004908155600654604080517fa9059cbb000000000000000000000000000000000000000000000000000000008152600160a060020a0386811694820194909452602481018590529051929091169163a9059cbb916044808201926020929091908290030181600087803b15801561053b57600080fd5b505af115801561054f573d6000803e3d6000fd5b505050506040513d602081101561056557600080fd5b50505050565b60025481565b600054600160a060020a0316331461058857600080fd5b600160a060020a038116151561059d57600080fd5b60008054604051600160a060020a03808516939216917f8be0079c531659141344cd1fd0a4f28419497f9722a3daafe3b4186f6b6457e091a36105df8161065f565b50565b600654600160a060020a031681565b6000828211156105fd57fe5b50900390565b4290565b600080828481151561061557fe5b04949350505050565b600080831515610631576000915061045c565b5082820282848281151561064157fe5b041461064957fe5b9392505050565b60008282018381101561064957fe5b6000805473ffffffffffffffffffffffffffffffffffffffff1916600160a060020a03929092169190911790555600a165627a7a72305820d673bf9663e119b182227accb2bf63cd751a740d7f9426f8a8372867f43912c50029",
  "source": "pragma solidity ^0.4.24;\n\nimport \"zeppelin-solidity/contracts/math/SafeMath.sol\";\n\nimport \"./Ownable.sol\";\nimport \"./JaroCoinToken.sol\";\nimport \"./SleepContract.sol\";\nimport \"./PersonalContract.sol\";\n\n\ncontract ExchangeRateConsumer is Ownable {\n    using SafeMath for uint256;\n\n    uint8 public constant EXCHANGE_RATE_DECIMALS = 3; // 3 digits precision for exchange rate\n    uint256 public conversionRate;                    // 17e10 wei per satoshi => 0.056 ETH/BTC\n    address public exhcnageRateOracle;\n\n    function setExchangeRateOracle(address _exchangeRateOracle) public onlyOwner {\n        require(_exchangeRateOracle != address(0));\n        exhcnageRateOracle = _exchangeRateOracle;\n    }\n\n    function setExchangeRate(uint256 _exchangeRate) public {\n        require(msg.sender == exhcnageRateOracle || msg.sender == owner);\n        require(_exchangeRate > 0);\n        conversionRate = _exchangeRate;\n    }\n\n    function updateConvertionRate(uint256 _rate) public onlyOwner {\n        require (_rate > 0);\n        uint256 one = 1e18;\n        conversionRate = one.div(_rate);\n    }\n\n}\n\ncontract JaroCoinCrowdsale is Ownable, ExchangeRateConsumer {\n    using SafeMath for uint256;\n    using SafeMath for uint256;\n    address public constant WALLET = 0xefF42c79c0aBea9958432DC82FebC4d65f3d24A3;\n\n    // Max tokens which can be in circulation\n    uint256 public constant MAX_AMOUNT = 21000000e18; // 21 000 000\n\n    // Amount of raised funds in satoshi\n    uint256 public satoshiRaised;\n\n    uint256 public rate;                              // number of tokens buyer gets per satoshi\n\n    JaroCoinToken public token;\n    JaroSleep public sleepContract;\n    PersonalTime public familyContract;\n    PersonalTime public personalContract;\n\n    uint256 public tokensToMint;                      // Amount of tokens left to mint in this sale\n    uint256 public saleStartTime;                     // Start time of recent token sale\n\n    // Indicator of token sale activity.\n    bool public isActive = false;\n    bool internal initialized = false;\n\n    event TokenPurchase(address indexed purchaser, address indexed beneficiary, uint256 value, uint256 amount);\n    event SaleActivated(uint256 startTime, uint256 amount);\n    event SaleClosed();\n\n    modifier canMint() {\n        require (isActive);\n        require (getNow() > saleStartTime);\n        _;\n    }\n\n    constructor(address _owner, address _token, address _familyOwner, address _personalOwner) public {\n        initialize(_owner, _token, _familyOwner, _personalOwner);\n    }\n\n    function initialize(address _owner, address _token, address _familyOwner, address _personalOwner) public {\n        require (!initialized);\n\n        token = JaroCoinToken(_token);\n\n        sleepContract = createJaroSleep(_token, 34560e18);       // 9.6 hours per day\n        familyContract = createPersonalTime(_token, 21600e18);   // 6 hours per day\n        personalContract = createPersonalTime(_token, 12960e18); // 3.6 hours per day\n\n        familyContract.transferOwnership(_familyOwner);\n        personalContract.transferOwnership(_personalOwner);\n\n        rate = 100000e10;\n        conversionRate = 17e10;\n        satoshiRaised = 0;\n\n        setOwner(_owner);\n        initialized = true;\n    }\n\n    // fallback function can be used to buy tokens\n    function () external canMint payable {\n        _buyTokens(msg.sender, msg.value, 0);\n    }\n\n    function coupon(uint256 _timeStamp, uint16 _bonus, uint8 v, bytes32 r, bytes32 s) external canMint payable {\n        require(_timeStamp >= getNow());\n\n        // Check if signature is valid, get signer's address and mark this cheque as used.\n        bytes memory prefix = \"\\x19Ethereum Signed Message:\\n32\";\n        bytes32 hash = keccak256(prefix, keccak256(_timeStamp, _bonus));\n\n        address signer = ecrecover(hash, v, r, s);\n        require(signer == owner);\n\n        _buyTokens(msg.sender, msg.value, _bonus);\n    }\n\n    function buyTokens(address _beneficiary) public canMint payable {\n        _buyTokens(_beneficiary, msg.value, 0);\n    }\n\n    function _buyTokens(address _beneficiary, uint256 _value, uint16 _bonus) internal {\n        require (_beneficiary != address(0));\n        require (_value > 0);\n\n        uint256 weiAmount = _value;\n        uint256 satoshiAmount = weiAmount.div(conversionRate);\n        uint256 tokens = satoshiAmount.mul(rate).mul(_bonus + 100).div(100);\n\n        // Mint tokens and refund not used ethers in case when max amount reached during this minting\n        uint256 excess = appendContribution(_beneficiary, tokens);\n        uint256 refund = (excess > 0 ? excess.mul(100).div(100+_bonus).mul(conversionRate).div(rate) : 0);\n        weiAmount = weiAmount.sub(refund);\n        satoshiRaised = satoshiRaised.add(satoshiAmount);\n\n        // if hard cap reached, no more tokens to mint, refund sender not used ethers\n        if (refund > 0) {\n            msg.sender.transfer(refund);\n        }\n\n        emit TokenPurchase(msg.sender, _beneficiary, weiAmount, tokens.sub(excess));\n\n        // Send ethers into WALLET\n        WALLET.transfer(weiAmount);\n    }\n\n    function appendContribution(address _beneficiary, uint256 _tokens) internal returns (uint256) {\n        if (_tokens >= tokensToMint) {\n            mint(_beneficiary, tokensToMint);\n            uint256 excededTokens = _tokens.sub(tokensToMint);\n            _closeSale(); // Last tokens minted, lets close token sale\n            return excededTokens;\n        }\n\n        tokensToMint = tokensToMint.sub(_tokens);\n        mint(_beneficiary, _tokens);\n        return 0;\n    }\n\n    /**\n     * Owner can start new token sale, to mint missing tokens by using this function,\n     * but not more often than once per month.\n     * @param _startTime start time for new token sale.\n    */\n    function startSale(uint256 _startTime) public onlyOwner {\n        require (!isActive);\n        require (_startTime > getNow());\n        require (saleStartTime == 0 || _startTime.sub(saleStartTime) > 30 days);   // Minimum one month between token sales\n\n        // Burn unburned sleep, family and personal time.\n        sleepContract.burnTokens();\n        uint256 sleepTokens = token.balanceOf(address(sleepContract));\n\n        familyContract.burnTokens();\n        uint256 familyTokens = token.balanceOf(familyContract).add(familyContract.debt());\n\n        personalContract.burnTokens();\n        uint256 personalTokens = token.balanceOf(personalContract).add(personalContract.debt());\n\n        uint256 missingSleep = MAX_AMOUNT.div(100).mul(40).sub(sleepTokens);       // sleep and stuff takes 40% of Jaro time\n        uint256 missingFamily = MAX_AMOUNT.div(100).mul(25).sub(familyTokens);     // 25% for family\n        uint256 missingPersonal = MAX_AMOUNT.div(100).mul(15).sub(personalTokens); // 15% is Jaro personal time\n\n        mint(address(sleepContract), missingSleep);\n        mint(address(familyContract), missingFamily);\n        mint(address(personalContract), missingPersonal);\n\n        tokensToMint = MAX_AMOUNT.sub(token.totalSupply());\n        saleStartTime = _startTime;\n        isActive = true;\n        emit SaleActivated(_startTime, tokensToMint);\n    }\n\n    function _closeSale() internal {\n        tokensToMint = 0;\n        isActive = false;\n        emit SaleClosed();\n    }\n\n    function closeSale() public onlyOwner {\n        _closeSale();\n    }\n\n    function mint(address _beneficiary, uint256 _amount) internal {\n        if (_amount > 0) {\n            token.mint(_beneficiary, _amount, \"\");\n        }\n    }\n\n    // This function created for easier testing purposes\n    function createJaroSleep(address _token, uint256 _dailyTime) internal returns (JaroSleep) {\n        return new JaroSleep(_token, _dailyTime);\n    }\n\n    function createPersonalTime(address _token, uint256 _dailyTime) internal returns (PersonalTime) {\n        return new PersonalTime(_token, _dailyTime);\n    }\n\n    // This function created for easier testing purposes\n    function getNow() internal view returns (uint256) {\n        return now;\n    }\n}\n",
  "sourcePath": "/Users/jaro/Dev/JaroCoin/contracts/contracts/JaroCoinCrowdsale.sol",
  "compiler": {
    "name": "solc",
    "version": "0.4.24+commit.e67f0147.Emscripten.clang"
  },
  "schemaVersion": "2.0.0",
  "updatedAt": "2018-05-29T07:34:59.611Z"
}