{
  "contractName": "JaroCoinCrowdsale",
  "abi": [
    {
      "constant": true,
      "inputs": [],
      "name": "satoshiRaised",
      "outputs": [
        {
          "name": "",
          "type": "uint256"
        }
      ],
      "payable": false,
      "stateMutability": "view",
      "type": "function"
    },
    {
      "constant": true,
      "inputs": [],
      "name": "saleStartTime",
      "outputs": [
        {
          "name": "",
          "type": "uint256"
        }
      ],
      "payable": false,
      "stateMutability": "view",
      "type": "function"
    },
    {
      "constant": true,
      "inputs": [],
      "name": "isActive",
      "outputs": [
        {
          "name": "",
          "type": "bool"
        }
      ],
      "payable": false,
      "stateMutability": "view",
      "type": "function"
    },
    {
      "constant": true,
      "inputs": [],
      "name": "rate",
      "outputs": [
        {
          "name": "",
          "type": "uint256"
        }
      ],
      "payable": false,
      "stateMutability": "view",
      "type": "function"
    },
    {
      "constant": true,
      "inputs": [],
      "name": "WALLET",
      "outputs": [
        {
          "name": "",
          "type": "address"
        }
      ],
      "payable": false,
      "stateMutability": "view",
      "type": "function"
    },
    {
      "constant": true,
      "inputs": [],
      "name": "sleepContract",
      "outputs": [
        {
          "name": "",
          "type": "address"
        }
      ],
      "payable": false,
      "stateMutability": "view",
      "type": "function"
    },
    {
      "constant": true,
      "inputs": [],
      "name": "conversionRate",
      "outputs": [
        {
          "name": "",
          "type": "uint256"
        }
      ],
      "payable": false,
      "stateMutability": "view",
      "type": "function"
    },
    {
      "constant": true,
      "inputs": [],
      "name": "owner",
      "outputs": [
        {
          "name": "",
          "type": "address"
        }
      ],
      "payable": false,
      "stateMutability": "view",
      "type": "function"
    },
    {
      "constant": true,
      "inputs": [],
      "name": "personalContract",
      "outputs": [
        {
          "name": "",
          "type": "address"
        }
      ],
      "payable": false,
      "stateMutability": "view",
      "type": "function"
    },
    {
      "constant": true,
      "inputs": [],
      "name": "tokensToMint",
      "outputs": [
        {
          "name": "",
          "type": "uint256"
        }
      ],
      "payable": false,
      "stateMutability": "view",
      "type": "function"
    },
    {
      "constant": true,
      "inputs": [],
      "name": "MAX_AMOUNT",
      "outputs": [
        {
          "name": "",
          "type": "uint256"
        }
      ],
      "payable": false,
      "stateMutability": "view",
      "type": "function"
    },
    {
      "constant": true,
      "inputs": [],
      "name": "familyContract",
      "outputs": [
        {
          "name": "",
          "type": "address"
        }
      ],
      "payable": false,
      "stateMutability": "view",
      "type": "function"
    },
    {
      "constant": false,
      "inputs": [
        {
          "name": "newOwner",
          "type": "address"
        }
      ],
      "name": "transferOwnership",
      "outputs": [],
      "payable": false,
      "stateMutability": "nonpayable",
      "type": "function"
    },
    {
      "constant": true,
      "inputs": [],
      "name": "token",
      "outputs": [
        {
          "name": "",
          "type": "address"
        }
      ],
      "payable": false,
      "stateMutability": "view",
      "type": "function"
    },
    {
      "inputs": [
        {
          "name": "_owner",
          "type": "address"
        },
        {
          "name": "_token",
          "type": "address"
        },
        {
          "name": "_familyOwner",
          "type": "address"
        },
        {
          "name": "_personalOwner",
          "type": "address"
        }
      ],
      "payable": false,
      "stateMutability": "nonpayable",
      "type": "constructor"
    },
    {
      "payable": true,
      "stateMutability": "payable",
      "type": "fallback"
    },
    {
      "anonymous": false,
      "inputs": [
        {
          "indexed": true,
          "name": "purchaser",
          "type": "address"
        },
        {
          "indexed": true,
          "name": "beneficiary",
          "type": "address"
        },
        {
          "indexed": false,
          "name": "value",
          "type": "uint256"
        },
        {
          "indexed": false,
          "name": "amount",
          "type": "uint256"
        }
      ],
      "name": "TokenPurchase",
      "type": "event"
    },
    {
      "anonymous": false,
      "inputs": [
        {
          "indexed": false,
          "name": "startTime",
          "type": "uint256"
        },
        {
          "indexed": false,
          "name": "amount",
          "type": "uint256"
        }
      ],
      "name": "SaleActivated",
      "type": "event"
    },
    {
      "anonymous": false,
      "inputs": [],
      "name": "SaleClosed",
      "type": "event"
    },
    {
      "anonymous": false,
      "inputs": [
        {
          "indexed": true,
          "name": "previousOwner",
          "type": "address"
        },
        {
          "indexed": true,
          "name": "newOwner",
          "type": "address"
        }
      ],
      "name": "OwnershipTransferred",
      "type": "event"
    },
    {
      "constant": false,
      "inputs": [
        {
          "name": "_owner",
          "type": "address"
        },
        {
          "name": "_token",
          "type": "address"
        },
        {
          "name": "_familyOwner",
          "type": "address"
        },
        {
          "name": "_personalOwner",
          "type": "address"
        }
      ],
      "name": "initialize",
      "outputs": [],
      "payable": false,
      "stateMutability": "nonpayable",
      "type": "function"
    },
    {
      "constant": false,
      "inputs": [
        {
          "name": "_timeStamp",
          "type": "uint256"
        },
        {
          "name": "_bonus",
          "type": "uint8"
        },
        {
          "name": "v",
          "type": "uint8"
        },
        {
          "name": "r",
          "type": "bytes32"
        },
        {
          "name": "s",
          "type": "bytes32"
        }
      ],
      "name": "coupon",
      "outputs": [],
      "payable": true,
      "stateMutability": "payable",
      "type": "function"
    },
    {
      "constant": false,
      "inputs": [
        {
          "name": "_beneficiary",
          "type": "address"
        }
      ],
      "name": "buyTokens",
      "outputs": [],
      "payable": true,
      "stateMutability": "payable",
      "type": "function"
    },
    {
      "constant": false,
      "inputs": [
        {
          "name": "_startTime",
          "type": "uint256"
        }
      ],
      "name": "startSale",
      "outputs": [],
      "payable": false,
      "stateMutability": "nonpayable",
      "type": "function"
    },
    {
      "constant": false,
      "inputs": [],
      "name": "closeSale",
      "outputs": [],
      "payable": false,
      "stateMutability": "nonpayable",
      "type": "function"
    },
    {
      "constant": false,
      "inputs": [
        {
          "name": "_rate",
          "type": "uint256"
        }
      ],
      "name": "updateConvertionRate",
      "outputs": [],
      "payable": false,
      "stateMutability": "nonpayable",
      "type": "function"
    }
  ],
  "bytecode": "0x6060604052600a805461ffff1916905534156200001b57600080fd5b6040516080806200346283398101604052808051919060200180519190602001805191906020018051915062000061905033640100000000620011be6200008782021704565b6200007d8484848464010000000062000e05620000a982021704565b505050506200034a565b60008054600160a060020a031916600160a060020a0392909216919091179055565b600a54610100900460ff1615620000bf57600080fd5b60048054600160a060020a031916600160a060020a038516179055620000fe836907518058bd45bc000000640100000000620002d88102620011ed1704565b60058054600160a060020a031916600160a060020a03929092169190911790556200014283690492f037764b958000006401000000006200031a8102620012281704565b60068054600160a060020a031916600160a060020a039290921691909117905562000186836902be902146fa268000006401000000006200031a8102620012281704565b60078054600160a060020a031916600160a060020a039283161790556006541663f2fde38b836040517c010000000000000000000000000000000000000000000000000000000063ffffffff8416028152600160a060020a039091166004820152602401600060405180830381600087803b15156200020457600080fd5b5af115156200021257600080fd5b5050600754600160a060020a0316905063f2fde38b826040517c010000000000000000000000000000000000000000000000000000000063ffffffff8416028152600160a060020a039091166004820152602401600060405180830381600087803b15156200028057600080fd5b5af115156200028e57600080fd5b505066038d7ea4c6800060025550642794ca24006003556000600155620002c384640100000000620011be6200008782021704565b5050600a805461ff0019166101001790555050565b60008282620002e662000328565b600160a060020a039092168252602082015260409081019051809103906000f08015156200031357600080fd5b9392505050565b60008282620002e662000339565b604051610625806200252983390190565b6040516109148062002b4e83390190565b6121cf806200035a6000396000f3006060604052600436106200010d5763ffffffff60e060020a6000350416630e3ab61d81146200014757806311ca3c6314620001605780631cbaee2d146200018857806322f3e2d4146200019e5780632c4e722e14620001c85780634ac9fc3714620001de5780635ec5bed614620001f75780636d9cdbc61462000216578063764c9d3214620002485780637ffdf53e146200025e5780638da5cb5b1462000274578063a1d27925146200028a578063cbafee8a14620002a0578063d40dc87014620002b6578063e01fff1314620002cc578063ec8ac4d814620002e2578063ee55efee14620002f8578063f2fde38b146200030e578063f8c8765e1462000330578063fc0c546a1462000364575b600a5460ff1615156200011f57600080fd5b6009546200012c6200037a565b116200013757600080fd5b62000145333460006200037e565b005b34156200015357600080fd5b6200014560043562000560565b34156200016c57600080fd5b6200017662000a9a565b60405190815260200160405180910390f35b34156200019457600080fd5b6200017662000aa0565b3415620001aa57600080fd5b620001b462000aa6565b604051901515815260200160405180910390f35b3415620001d457600080fd5b6200017662000aaf565b3415620001ea57600080fd5b6200014560043562000ab5565b6200014560043560ff6024358116906044351660643560843562000b03565b34156200022257600080fd5b6200022c62000cba565b604051600160a060020a03909116815260200160405180910390f35b34156200025457600080fd5b6200022c62000cd2565b34156200026a57600080fd5b6200017662000ce1565b34156200028057600080fd5b6200022c62000ce7565b34156200029657600080fd5b6200022c62000cf6565b3415620002ac57600080fd5b6200017662000d05565b3415620002c257600080fd5b6200017662000d0b565b3415620002d857600080fd5b6200022c62000d1a565b62000145600160a060020a036004351662000d29565b34156200030457600080fd5b6200014562000d64565b34156200031a57600080fd5b62000145600160a060020a036004351662000d8c565b34156200033c57600080fd5b62000145600160a060020a036004358116906024358116906044358116906064351662000e05565b34156200037057600080fd5b6200022c62000ffe565b4290565b600080808080600160a060020a03881615156200039a57600080fd5b60008711620003a857600080fd5b600354879550620003c190869063ffffffff6200100d16565b9350620004056064620003f88860640160ff16620003eb600254896200102a90919063ffffffff16565b9063ffffffff6200102a16565b9063ffffffff6200100d16565b925062000413888462001060565b9150600082116200042657600062000455565b62000455600254620003f8600354620003eb8a60640160ff16620003f86064896200102a90919063ffffffff16565b905062000469858263ffffffff620010d616565b60015490955062000481908563ffffffff620010e916565b6001556000811115620004c057600160a060020a03331681156108fc0282604051600060405180830381858888f193505050501515620004c057600080fd5b600160a060020a038089169033167f623b3804fa71d67900d064613da8f94b9617215ee90799290593e1745087ad188762000502878763ffffffff620010d616565b60405191825260208201526040908101905180910390a373eff42c79c0abea9958432dc82febc4d65f3d24a385156108fc0286604051600060405180830381858888f1935050505015156200055657600080fd5b5050505050505050565b600080548190819081908190819033600160a060020a039081169116146200058757600080fd5b600a5460ff16156200059857600080fd5b620005a26200037a565b8711620005ae57600080fd5b6009541580620005d6575062278d00620005d460095489620010d690919063ffffffff16565b115b1515620005e257600080fd5b600554600160a060020a03166308003f786040518163ffffffff1660e060020a028152600401602060405180830381600087803b15156200062257600080fd5b5af115156200063057600080fd5b50505060405180515050600454600554600160a060020a03918216916370a08231911660405160e060020a63ffffffff8416028152600160a060020a039091166004820152602401602060405180830381600087803b15156200069257600080fd5b5af11515620006a057600080fd5b5050506040518051600654909750600160a060020a031690506308003f786040518163ffffffff1660e060020a028152600401602060405180830381600087803b1515620006ed57600080fd5b5af11515620006fb57600080fd5b50505060405180515050600654620007e090600160a060020a0316630dca59c16040518163ffffffff1660e060020a028152600401602060405180830381600087803b15156200074a57600080fd5b5af115156200075857600080fd5b5050506040518051600454600654919250600160a060020a03908116916370a08231911660405160e060020a63ffffffff8416028152600160a060020a039091166004820152602401602060405180830381600087803b1515620007bb57600080fd5b5af11515620007c957600080fd5b505050604051805191905063ffffffff620010e916565b600754909550600160a060020a03166308003f786040518163ffffffff1660e060020a028152600401602060405180830381600087803b15156200082357600080fd5b5af115156200083157600080fd5b50505060405180515050600754620008f190600160a060020a0316630dca59c16040518163ffffffff1660e060020a028152600401602060405180830381600087803b15156200088057600080fd5b5af115156200088e57600080fd5b5050506040518051600454600754919250600160a060020a03908116916370a08231911660405160e060020a63ffffffff8416028152600160a060020a039091166004820152602401602060405180830381600087803b1515620007bb57600080fd5b935062000929866200091c6028620003eb6a115eec47f6cf7e35000000606463ffffffff6200100d16565b9063ffffffff620010d616565b925062000954856200091c6019620003eb6a115eec47f6cf7e35000000606463ffffffff6200100d16565b91506200097f846200091c600f620003eb6a115eec47f6cf7e35000000606463ffffffff6200100d16565b6005549091506200099a90600160a060020a031684620010f9565b600654620009b290600160a060020a031683620010f9565b600754620009ca90600160a060020a031682620010f9565b60045462000a3f90600160a060020a03166318160ddd6040518163ffffffff1660e060020a028152600401602060405180830381600087803b151562000a0f57600080fd5b5af1151562000a1d57600080fd5b50505060405180516a115eec47f6cf7e35000000915063ffffffff620010d616565b60088190556009889055600a805460ff191660011790557fb5294ab8aa3e7fb5cb2ad484b416409f3f6eae057ebac0ceeb04c03a45f5d00e90889060405191825260208201526040908101905180910390a150505050505050565b60015481565b60095481565b600a5460ff1681565b60025481565b6000805433600160a060020a0390811691161462000ad257600080fd5b6000821162000ae057600080fd5b50670de0b6b3a764000062000afc818363ffffffff6200100d16565b6003555050565b62000b0d62001236565b600a54600090819060ff16151562000b2457600080fd5b60095462000b316200037a565b1162000b3c57600080fd5b62000b466200037a565b88101562000b5357600080fd5b6040805190810160405280601c81526020017f19457468657265756d205369676e6564204d6573736167653a0a333200000000815250925082888860405191825260ff167f010000000000000000000000000000000000000000000000000000000000000002602082015260210160405180910390206040518083805190602001908083835b6020831062000bfa5780518252601f19909201916020918201910162000bd9565b6001836020036101000a03801982511681845116179092525050509190910192835250506020019050604051809103902091506001828787876040516000815260200160405260405193845260ff9092166020808501919091526040808501929092526060840192909252608090920191516020810390808403906000865af1151562000c8657600080fd5b505060206040510351600054909150600160a060020a0380831691161462000cad57600080fd5b620005563334896200037e565b73eff42c79c0abea9958432dc82febc4d65f3d24a381565b600554600160a060020a031681565b60035481565b600054600160a060020a031681565b600754600160a060020a031681565b60085481565b6a115eec47f6cf7e3500000081565b600654600160a060020a031681565b600a5460ff16151562000d3b57600080fd5b60095462000d486200037a565b1162000d5357600080fd5b62000d61813460006200037e565b50565b60005433600160a060020a0390811691161462000d8057600080fd5b62000d8a62001181565b565b60005433600160a060020a0390811691161462000da857600080fd5b600160a060020a038116151562000dbe57600080fd5b600054600160a060020a0380831691167f8be0079c531659141344cd1fd0a4f28419497f9722a3daafe3b4186f6b6457e060405160405180910390a362000d6181620011be565b600a54610100900460ff161562000e1b57600080fd5b6004805473ffffffffffffffffffffffffffffffffffffffff1916600160a060020a03851617905562000e59836907518058bd45bc000000620011ed565b6005805473ffffffffffffffffffffffffffffffffffffffff1916600160a060020a039290921691909117905562000e9c83690492f037764b9580000062001228565b6006805473ffffffffffffffffffffffffffffffffffffffff1916600160a060020a039290921691909117905562000edf836902be902146fa2680000062001228565b6007805473ffffffffffffffffffffffffffffffffffffffff1916600160a060020a039283161790556006541663f2fde38b8360405160e060020a63ffffffff8416028152600160a060020a039091166004820152602401600060405180830381600087803b151562000f5157600080fd5b5af1151562000f5f57600080fd5b5050600754600160a060020a0316905063f2fde38b8260405160e060020a63ffffffff8416028152600160a060020a039091166004820152602401600060405180830381600087803b151562000fb457600080fd5b5af1151562000fc257600080fd5b505066038d7ea4c6800060025550642794ca2400600355600060015562000fe984620011be565b5050600a805461ff0019166101001790555050565b600454600160a060020a031681565b60008082848115156200101c57fe5b0490508091505b5092915050565b6000808315156200103f576000915062001023565b508282028284828115156200105057fe5b04146200105957fe5b9392505050565b60008060085483101515620010a8576200107d84600854620010f9565b6008546200109390849063ffffffff620010d616565b90506200109f62001181565b80915062001023565b600854620010bd908463ffffffff620010d616565b600855620010cc8484620010f9565b5060009392505050565b600082821115620010e357fe5b50900390565b6000828201838110156200105957fe5b60008111156200117d57600454600160a060020a03166394d008ef838360405160e060020a63ffffffff8516028152600160a060020a03909216600483015260248201526060604482015260006064820181905260a49091019060405180830381600087803b15156200116b57600080fd5b5af115156200117957600080fd5b5050505b5050565b6000600855600a805460ff191690557f4c013bd73202fde3c7cfe26ca486d0882f2c5b2fc9c761b15212f759bd2347dd60405160405180910390a1565b6000805473ffffffffffffffffffffffffffffffffffffffff1916600160a060020a0392909216919091179055565b60008282620011fb62001248565b600160a060020a039092168252602082015260409081019051809103906000f08015156200105957600080fd5b60008282620011fb62001259565b60206040519081016040526000815290565b604051610625806200126b83390190565b6040516109148062001890833901905600606060405260008054600160a060020a03191673991a1bcb077599290d7305493c9a630c20f8b798179055341561003557600080fd5b6040516040806106258339810160405280805191906020018051915061009d905060408051908101604052601581527f455243373737546f6b656e73526563697069656e7400000000000000000000006020820152306401000000006103426100d982021704565b60038054600160a060020a031916600160a060020a0384161790556100cd6401000000006101cb81026102d41704565b600155600255506101cf565b6000826040518082805190602001908083835b6020831061010b5780518252601f1990920191602091820191016100ec565b6001836020036101000a0380198251168184511617909252505050919091019250604091505051908190039020600054909150600160a060020a03166329965a1d3083856040517c010000000000000000000000000000000000000000000000000000000063ffffffff8616028152600160a060020a03938416600482015260248101929092529091166044820152606401600060405180830381600087803b15156101b657600080fd5b5af115156101c357600080fd5b505050505050565b4290565b610447806101de6000396000f3006060604052600436106100525763ffffffff60e060020a60003504166223de29811461005757806308003f78146100a15780634b45b97d146100c6578063bbce2c17146100d9578063fc0c546a146100ec575b600080fd5b341561006257600080fd5b61009f60048035600160a060020a03908116916024803583169260443516916064359160843580820192908101359160a43590810191013561011b565b005b34156100ac57600080fd5b6100b46101c0565b60405190815260200160405180910390f35b34156100d157600080fd5b6100b46102b9565b34156100e457600080fd5b6100b46102bf565b34156100f757600080fd5b6100ff6102c5565b604051600160a060020a03909116815260200160405180910390f35b7febd4fa6a0a7c7ce84af5e1ad6e1fa013f744f3db66311c33c185d8a80ab442078888888888888888604051600160a060020a03808a1682528881166020830152871660408201526060810186905260c06080820181815290820185905260a0820160e083018787808284379091018481038352858152602001905085858082843782019150509a505050505050505050505060405180910390a15050505050505050565b6000806000806101e06001546101d46102d4565b9063ffffffff6102d816565b9250600091506201518083106102b257610203836201518063ffffffff6102ea16565b905061021a6002548261030190919063ffffffff16565b600354909250600160a060020a031663fe9d93038360405160e060020a63ffffffff84160281526004810191909152604060248201819052600060448301819052608490920191905180830381600087803b151561027757600080fd5b5af1151561028457600080fd5b506102ae915061029f9050826201518063ffffffff61030116565b6001549063ffffffff61033316565b6001555b5092915050565b60025481565b60015481565b600354600160a060020a031681565b4290565b6000828211156102e457fe5b50900390565b60008082848115156102f857fe5b04949350505050565b60008083151561031457600091506102b2565b5082820282848281151561032457fe5b041461032c57fe5b9392505050565b60008282018381101561032c57fe5b6000826040518082805190602001908083835b602083106103745780518252601f199092019160209182019101610355565b6001836020036101000a0380198251168184511617909252505050919091019250604091505051908190039020600054909150600160a060020a03166329965a1d30838560405160e060020a63ffffffff8616028152600160a060020a03938416600482015260248101929092529091166044820152606401600060405180830381600087803b151561040657600080fd5b5af1151561041357600080fd5b5050505050505600a165627a7a7230582025e12cd43e704ecbecd0c9d79edb01539a1c9f7b61c2450d80990867c05bc4fe0029606060405260018054600160a060020a03191673991a1bcb077599290d7305493c9a630c20f8b79817905560006004819055600555341561003f57600080fd5b604051604080610914833981016040528080519190602001805191506100739050336401000000006105c06100f982021704565b6100bd60408051908101604052601581527f455243373737546f6b656e73526563697069656e7400000000000000000000006020820152306401000000006105ef61011b82021704565b60068054600160a060020a031916600160a060020a0384161790556100ed64010000000061020d81026105641704565b60025560035550610211565b60008054600160a060020a031916600160a060020a0392909216919091179055565b6000826040518082805190602001908083835b6020831061014d5780518252601f19909201916020918201910161012e565b6001836020036101000a0380198251168184511617909252505050919091019250604091505051908190039020600154909150600160a060020a03166329965a1d3083856040517c010000000000000000000000000000000000000000000000000000000063ffffffff8616028152600160a060020a03938416600482015260248101929092529091166044820152606401600060405180830381600087803b15156101f857600080fd5b5af1151561020557600080fd5b505050505050565b4290565b6106f4806102206000396000f3006060604052600436106100895763ffffffff60e060020a60003504166223de29811461008e57806308003f78146100d85780630dca59c1146100fd5780632dcd05b8146101105780634b45b97d146101235780638da5cb5b14610136578063a9059cbb14610165578063bbce2c1714610187578063f2fde38b1461019a578063fc0c546a146101b9575b600080fd5b341561009957600080fd5b6100d660048035600160a060020a03908116916024803583169260443516916064359160843580820192908101359160a4359081019101356101cc565b005b34156100e357600080fd5b6100eb6102b3565b60405190815260200160405180910390f35b341561010857600080fd5b6100eb6103ec565b341561011b57600080fd5b6100eb6103f2565b341561012e57600080fd5b6100eb6103f8565b341561014157600080fd5b6101496103fe565b604051600160a060020a03909116815260200160405180910390f35b341561017057600080fd5b6100d6600160a060020a036004351660243561040d565b341561019257600080fd5b6100eb6104c5565b34156101a557600080fd5b6100d6600160a060020a03600435166104cb565b34156101c457600080fd5b610149610543565b60065433600160a060020a039081169116146101e757600080fd5b8460045410156101f857600061020b565b60045461020b908663ffffffff61055216565b6004557febd4fa6a0a7c7ce84af5e1ad6e1fa013f744f3db66311c33c185d8a80ab442078888888888888888604051600160a060020a03808a1682528881166020830152871660408201526060810186905260c06080820181815290820185905260a0820160e083018787808284379091018481038352858152602001905085858082843782019150509a505050505050505050505060405180910390a15050505050505050565b6000806000806102d36002546102c7610564565b9063ffffffff61055216565b9250600091506201518083106103e5576102f6836201518063ffffffff61056816565b905061030d6003548261057f90919063ffffffff16565b9150816005541015156103355760055461032d908363ffffffff61055216565b6005556103bc565b600654600554600160a060020a039091169063fe9d93039061035e90859063ffffffff61055216565b60405160e060020a63ffffffff84160281526004810191909152604060248201819052600060448301819052608490920191905180830381600087803b15156103a657600080fd5b5af115156103b357600080fd5b50506000600555505b6103e16103d2826201518063ffffffff61057f16565b6002549063ffffffff6105b116565b6002555b5092915050565b60045481565b60055481565b60035481565b600054600160a060020a031681565b60005433600160a060020a0390811691161461042857600080fd5b60055461043b908263ffffffff6105b116565b600555600454610451908263ffffffff6105b116565b600455600654600160a060020a031663a9059cbb838360405160e060020a63ffffffff8516028152600160a060020a0390921660048301526024820152604401602060405180830381600087803b15156104aa57600080fd5b5af115156104b757600080fd5b505050604051805150505050565b60025481565b60005433600160a060020a039081169116146104e657600080fd5b600160a060020a03811615156104fb57600080fd5b600054600160a060020a0380831691167f8be0079c531659141344cd1fd0a4f28419497f9722a3daafe3b4186f6b6457e060405160405180910390a3610540816105c0565b50565b600654600160a060020a031681565b60008282111561055e57fe5b50900390565b4290565b600080828481151561057657fe5b04949350505050565b60008083151561059257600091506103e5565b508282028284828115156105a257fe5b04146105aa57fe5b9392505050565b6000828201838110156105aa57fe5b6000805473ffffffffffffffffffffffffffffffffffffffff1916600160a060020a0392909216919091179055565b6000826040518082805190602001908083835b602083106106215780518252601f199092019160209182019101610602565b6001836020036101000a0380198251168184511617909252505050919091019250604091505051908190039020600154909150600160a060020a03166329965a1d30838560405160e060020a63ffffffff8616028152600160a060020a03938416600482015260248101929092529091166044820152606401600060405180830381600087803b15156106b357600080fd5b5af115156106c057600080fd5b5050505050505600a165627a7a72305820392742723c291ce4d3a6def176a83a784d6d5ebe78db5cd422d15b806c4407f20029a165627a7a723058200ef49fb16e515ed2a92091987bff4cfef1b7f1d5d163f1aa2b5baa86a1e76de90029606060405260008054600160a060020a03191673991a1bcb077599290d7305493c9a630c20f8b798179055341561003557600080fd5b6040516040806106258339810160405280805191906020018051915061009d905060408051908101604052601581527f455243373737546f6b656e73526563697069656e7400000000000000000000006020820152306401000000006103426100d982021704565b60038054600160a060020a031916600160a060020a0384161790556100cd6401000000006101cb81026102d41704565b600155600255506101cf565b6000826040518082805190602001908083835b6020831061010b5780518252601f1990920191602091820191016100ec565b6001836020036101000a0380198251168184511617909252505050919091019250604091505051908190039020600054909150600160a060020a03166329965a1d3083856040517c010000000000000000000000000000000000000000000000000000000063ffffffff8616028152600160a060020a03938416600482015260248101929092529091166044820152606401600060405180830381600087803b15156101b657600080fd5b5af115156101c357600080fd5b505050505050565b4290565b610447806101de6000396000f3006060604052600436106100525763ffffffff60e060020a60003504166223de29811461005757806308003f78146100a15780634b45b97d146100c6578063bbce2c17146100d9578063fc0c546a146100ec575b600080fd5b341561006257600080fd5b61009f60048035600160a060020a03908116916024803583169260443516916064359160843580820192908101359160a43590810191013561011b565b005b34156100ac57600080fd5b6100b46101c0565b60405190815260200160405180910390f35b34156100d157600080fd5b6100b46102b9565b34156100e457600080fd5b6100b46102bf565b34156100f757600080fd5b6100ff6102c5565b604051600160a060020a03909116815260200160405180910390f35b7febd4fa6a0a7c7ce84af5e1ad6e1fa013f744f3db66311c33c185d8a80ab442078888888888888888604051600160a060020a03808a1682528881166020830152871660408201526060810186905260c06080820181815290820185905260a0820160e083018787808284379091018481038352858152602001905085858082843782019150509a505050505050505050505060405180910390a15050505050505050565b6000806000806101e06001546101d46102d4565b9063ffffffff6102d816565b9250600091506201518083106102b257610203836201518063ffffffff6102ea16565b905061021a6002548261030190919063ffffffff16565b600354909250600160a060020a031663fe9d93038360405160e060020a63ffffffff84160281526004810191909152604060248201819052600060448301819052608490920191905180830381600087803b151561027757600080fd5b5af1151561028457600080fd5b506102ae915061029f9050826201518063ffffffff61030116565b6001549063ffffffff61033316565b6001555b5092915050565b60025481565b60015481565b600354600160a060020a031681565b4290565b6000828211156102e457fe5b50900390565b60008082848115156102f857fe5b04949350505050565b60008083151561031457600091506102b2565b5082820282848281151561032457fe5b041461032c57fe5b9392505050565b60008282018381101561032c57fe5b6000826040518082805190602001908083835b602083106103745780518252601f199092019160209182019101610355565b6001836020036101000a0380198251168184511617909252505050919091019250604091505051908190039020600054909150600160a060020a03166329965a1d30838560405160e060020a63ffffffff8616028152600160a060020a03938416600482015260248101929092529091166044820152606401600060405180830381600087803b151561040657600080fd5b5af1151561041357600080fd5b5050505050505600a165627a7a7230582025e12cd43e704ecbecd0c9d79edb01539a1c9f7b61c2450d80990867c05bc4fe0029606060405260018054600160a060020a03191673991a1bcb077599290d7305493c9a630c20f8b79817905560006004819055600555341561003f57600080fd5b604051604080610914833981016040528080519190602001805191506100739050336401000000006105c06100f982021704565b6100bd60408051908101604052601581527f455243373737546f6b656e73526563697069656e7400000000000000000000006020820152306401000000006105ef61011b82021704565b60068054600160a060020a031916600160a060020a0384161790556100ed64010000000061020d81026105641704565b60025560035550610211565b60008054600160a060020a031916600160a060020a0392909216919091179055565b6000826040518082805190602001908083835b6020831061014d5780518252601f19909201916020918201910161012e565b6001836020036101000a0380198251168184511617909252505050919091019250604091505051908190039020600154909150600160a060020a03166329965a1d3083856040517c010000000000000000000000000000000000000000000000000000000063ffffffff8616028152600160a060020a03938416600482015260248101929092529091166044820152606401600060405180830381600087803b15156101f857600080fd5b5af1151561020557600080fd5b505050505050565b4290565b6106f4806102206000396000f3006060604052600436106100895763ffffffff60e060020a60003504166223de29811461008e57806308003f78146100d85780630dca59c1146100fd5780632dcd05b8146101105780634b45b97d146101235780638da5cb5b14610136578063a9059cbb14610165578063bbce2c1714610187578063f2fde38b1461019a578063fc0c546a146101b9575b600080fd5b341561009957600080fd5b6100d660048035600160a060020a03908116916024803583169260443516916064359160843580820192908101359160a4359081019101356101cc565b005b34156100e357600080fd5b6100eb6102b3565b60405190815260200160405180910390f35b341561010857600080fd5b6100eb6103ec565b341561011b57600080fd5b6100eb6103f2565b341561012e57600080fd5b6100eb6103f8565b341561014157600080fd5b6101496103fe565b604051600160a060020a03909116815260200160405180910390f35b341561017057600080fd5b6100d6600160a060020a036004351660243561040d565b341561019257600080fd5b6100eb6104c5565b34156101a557600080fd5b6100d6600160a060020a03600435166104cb565b34156101c457600080fd5b610149610543565b60065433600160a060020a039081169116146101e757600080fd5b8460045410156101f857600061020b565b60045461020b908663ffffffff61055216565b6004557febd4fa6a0a7c7ce84af5e1ad6e1fa013f744f3db66311c33c185d8a80ab442078888888888888888604051600160a060020a03808a1682528881166020830152871660408201526060810186905260c06080820181815290820185905260a0820160e083018787808284379091018481038352858152602001905085858082843782019150509a505050505050505050505060405180910390a15050505050505050565b6000806000806102d36002546102c7610564565b9063ffffffff61055216565b9250600091506201518083106103e5576102f6836201518063ffffffff61056816565b905061030d6003548261057f90919063ffffffff16565b9150816005541015156103355760055461032d908363ffffffff61055216565b6005556103bc565b600654600554600160a060020a039091169063fe9d93039061035e90859063ffffffff61055216565b60405160e060020a63ffffffff84160281526004810191909152604060248201819052600060448301819052608490920191905180830381600087803b15156103a657600080fd5b5af115156103b357600080fd5b50506000600555505b6103e16103d2826201518063ffffffff61057f16565b6002549063ffffffff6105b116565b6002555b5092915050565b60045481565b60055481565b60035481565b600054600160a060020a031681565b60005433600160a060020a0390811691161461042857600080fd5b60055461043b908263ffffffff6105b116565b600555600454610451908263ffffffff6105b116565b600455600654600160a060020a031663a9059cbb838360405160e060020a63ffffffff8516028152600160a060020a0390921660048301526024820152604401602060405180830381600087803b15156104aa57600080fd5b5af115156104b757600080fd5b505050604051805150505050565b60025481565b60005433600160a060020a039081169116146104e657600080fd5b600160a060020a03811615156104fb57600080fd5b600054600160a060020a0380831691167f8be0079c531659141344cd1fd0a4f28419497f9722a3daafe3b4186f6b6457e060405160405180910390a3610540816105c0565b50565b600654600160a060020a031681565b60008282111561055e57fe5b50900390565b4290565b600080828481151561057657fe5b04949350505050565b60008083151561059257600091506103e5565b508282028284828115156105a257fe5b04146105aa57fe5b9392505050565b6000828201838110156105aa57fe5b6000805473ffffffffffffffffffffffffffffffffffffffff1916600160a060020a0392909216919091179055565b6000826040518082805190602001908083835b602083106106215780518252601f199092019160209182019101610602565b6001836020036101000a0380198251168184511617909252505050919091019250604091505051908190039020600154909150600160a060020a03166329965a1d30838560405160e060020a63ffffffff8616028152600160a060020a03938416600482015260248101929092529091166044820152606401600060405180830381600087803b15156106b357600080fd5b5af115156106c057600080fd5b5050505050505600a165627a7a72305820392742723c291ce4d3a6def176a83a784d6d5ebe78db5cd422d15b806c4407f20029",
  "source": "pragma solidity 0.4.21;\n\nimport \"zeppelin-solidity/contracts/math/SafeMath.sol\";\n\nimport \"./Ownable.sol\";\nimport \"./JaroCoinToken.sol\";\nimport \"./SleepContract.sol\";\nimport \"./PersonalContract.sol\";\n\ncontract JaroCoinCrowdsale is Ownable {\n    using SafeMath for uint256;\n\n    address public constant WALLET = 0xefF42c79c0aBea9958432DC82FebC4d65f3d24A3;\n\n    // Max tokens which can be in circulation\n    uint256 public constant MAX_AMOUNT = 21000000e18; // 21 000 000\n\n    // Amount of raised funds in satoshi\n    uint256 public satoshiRaised;\n\n    uint256 public rate;                              // number of tokens buyer gets per satoshi\n    uint256 public conversionRate;                    // wei per satoshi - per ETH => 0.056 ETH/BTC ? wei per satoshi?\n\n    JaroCoinToken public token;\n    JaroSleep public sleepContract;\n    PersonalTime public familyContract;\n    PersonalTime public personalContract;\n\n    uint256 public tokensToMint;                      // Amount of tokens left to mint in this sale\n    uint256 public saleStartTime;                     // Start time of recent token sale\n\n    // Indicator of token sale activity.\n    bool public isActive = false;\n    bool internal initialized = false;\n\n    event TokenPurchase(address indexed purchaser, address indexed beneficiary, uint256 value, uint256 amount);\n    event SaleActivated(uint256 startTime, uint256 amount);\n    event SaleClosed();\n\n    modifier canMint() {\n        require (isActive);\n        require (getNow() > saleStartTime);\n        _;\n    }\n\n    function JaroCoinCrowdsale(address _owner, address _token, address _familyOwner, address _personalOwner) public {\n        initialize(_owner, _token, _familyOwner, _personalOwner);\n    }\n\n    function initialize(address _owner, address _token, address _familyOwner, address _personalOwner) public {\n        require (!initialized);\n\n        token = JaroCoinToken(_token);\n\n        sleepContract = createJaroSleep(_token, 34560e18);       // 9.6 hours per day\n        familyContract = createPersonalTime(_token, 21600e18);   // 6 hours per day\n        personalContract = createPersonalTime(_token, 12960e18); // 3.6 hours per day\n\n        familyContract.transferOwnership(_familyOwner);\n        personalContract.transferOwnership(_personalOwner);\n\n        rate = 100000e10;\n        conversionRate = 17e10;\n        satoshiRaised = 0;\n\n        setOwner(_owner);\n        initialized = true;\n    }\n\n    // fallback function can be used to buy tokens\n    function () external canMint payable {\n        _buyTokens(msg.sender, msg.value, 0);\n    }\n\n    function coupon(uint256 _timeStamp, uint8 _bonus, uint8 v, bytes32 r, bytes32 s) external canMint payable {\n        require(_timeStamp >= getNow());\n\n        // Check if signature is valid, get signer's address and mark this cheque as used.\n        bytes memory prefix = \"\\x19Ethereum Signed Message:\\n32\";\n        bytes32 hash = keccak256(prefix, keccak256(_timeStamp, _bonus));\n\n        address signer = ecrecover(hash, v, r, s);\n        require(signer == owner);\n\n        _buyTokens(msg.sender, msg.value, _bonus);\n    }\n\n    function buyTokens(address _beneficiary) public canMint payable {\n        _buyTokens(_beneficiary, msg.value, 0);\n    }\n\n    function _buyTokens(address _beneficiary, uint256 _value, uint8 _bonus) internal {\n        require (_beneficiary != address(0));\n        require (_value > 0);\n\n        uint256 weiAmount = _value;\n        uint256 satoshiAmount = weiAmount.div(conversionRate);\n        uint256 tokens = satoshiAmount.mul(rate).mul(uint256(_bonus + 100)).div(100);\n\n        // Mint tokens and refund not used ethers in case when max amount reached during this minting\n        uint256 excess = appendContribution(_beneficiary, tokens);\n        uint256 refund = (excess > 0 ? excess.mul(100).div(100+_bonus).mul(conversionRate).div(rate) : 0);\n        weiAmount = weiAmount.sub(refund);\n        satoshiRaised = satoshiRaised.add(satoshiAmount);\n\n        // if hard cap reached, no more tokens to mint, refund sender not used ethers\n        if (refund > 0) {\n            msg.sender.transfer(refund);\n        }\n\n        emit TokenPurchase(msg.sender, _beneficiary, weiAmount, tokens.sub(excess));\n\n        // Send ethers into WALLET\n        WALLET.transfer(weiAmount);\n    }\n\n    function appendContribution(address _beneficiary, uint256 _tokens) internal returns (uint256) {\n        if (_tokens >= tokensToMint) {\n            mint(_beneficiary, tokensToMint);\n            uint256 excededTokens = _tokens.sub(tokensToMint);\n            _closeSale(); // Last tokens minted, lets close token sale\n            return excededTokens;\n        }\n\n        tokensToMint = tokensToMint.sub(_tokens);\n        mint(_beneficiary, _tokens);\n        return 0;\n    }\n\n    /**\n     * Owner can start new token sale, to mint missing tokens by using this function,\n     * but not more often than once per month.\n     * @param _startTime start time for new token sale.\n    */\n    function startSale(uint256 _startTime) public onlyOwner {\n        require (!isActive);\n        require (_startTime > getNow());\n        require (saleStartTime == 0 || _startTime.sub(saleStartTime) > 30 days);   // Minimum one month between token sales\n\n        // Burn unburned sleep, family and personal time.\n        sleepContract.burnTokens();\n        uint256 sleepTokens = token.balanceOf(address(sleepContract));\n\n        familyContract.burnTokens();\n        uint256 familyTokens = token.balanceOf(familyContract).add(familyContract.debt());\n\n        personalContract.burnTokens();\n        uint256 personalTokens = token.balanceOf(personalContract).add(personalContract.debt());\n\n        uint256 missingSleep = MAX_AMOUNT.div(100).mul(40).sub(sleepTokens);       // sleep and stuff takes 40% of Jaro time\n        uint256 missingFamily = MAX_AMOUNT.div(100).mul(25).sub(familyTokens);     // 25% for family\n        uint256 missingPersonal = MAX_AMOUNT.div(100).mul(15).sub(personalTokens); // 15% is Jaro personal time\n\n        mint(address(sleepContract), missingSleep);\n        mint(address(familyContract), missingFamily);\n        mint(address(personalContract), missingPersonal);\n\n        tokensToMint = MAX_AMOUNT.sub(token.totalSupply());\n        saleStartTime = _startTime;\n        isActive = true;\n        emit SaleActivated(_startTime, tokensToMint);\n    }\n\n    function _closeSale() internal {\n        tokensToMint = 0;\n        isActive = false;\n        emit SaleClosed();\n    }\n\n    function closeSale() public onlyOwner {\n        _closeSale();\n    }\n\n    function updateConvertionRate(uint256 _rate) public onlyOwner {\n        require (_rate > 0);\n        uint256 one = 1e18;\n        conversionRate = one.div(_rate);\n    }\n\n    function mint(address _beneficiary, uint256 _amount) internal {\n        if (_amount > 0) {\n            token.mint(_beneficiary, _amount, \"\");\n        }\n    }\n\n    // This function created for easier testing purposes\n    function createJaroSleep(address _token, uint256 _dailyTime) internal returns (JaroSleep) {\n        return new JaroSleep(_token, _dailyTime);\n    }\n\n    function createPersonalTime(address _token, uint256 _dailyTime) internal returns (PersonalTime) {\n        return new PersonalTime(_token, _dailyTime);\n    }\n\n    // This function created for easier testing purposes\n    function getNow() internal view returns (uint256) {\n        return now;\n    }\n}\n",
  "sourcePath": "/Users/jaro/Dev/JaroCoin/contracts/contracts/JaroCoinCrowdsale.sol",
  "compiler": {
    "name": "solc",
    "version": "0.4.21+commit.dfe3193c.Emscripten.clang"
  },
  "schemaVersion": "2.0.0",
  "updatedAt": "2018-04-18T09:48:38.715Z"
}